{
	"_format": "hh-sol-artifact-1",
	"contractName": "TVToken",
	"sourceName": "contracts/TweetVoter.sol",
	"abi": [
		{
			"inputs": [],
			"stateMutability": "nonpayable",
			"type": "constructor"
		},
		{
			"anonymous": false,
			"inputs": [
				{
					"indexed": true,
					"internalType": "address",
					"name": "owner",
					"type": "address"
				},
				{
					"indexed": true,
					"internalType": "address",
					"name": "spender",
					"type": "address"
				},
				{
					"indexed": false,
					"internalType": "uint256",
					"name": "value",
					"type": "uint256"
				}
			],
			"name": "Approval",
			"type": "event"
		},
		{
			"anonymous": false,
			"inputs": [
				{
					"indexed": true,
					"internalType": "bytes32",
					"name": "role",
					"type": "bytes32"
				},
				{
					"indexed": true,
					"internalType": "bytes32",
					"name": "previousAdminRole",
					"type": "bytes32"
				},
				{
					"indexed": true,
					"internalType": "bytes32",
					"name": "newAdminRole",
					"type": "bytes32"
				}
			],
			"name": "RoleAdminChanged",
			"type": "event"
		},
		{
			"anonymous": false,
			"inputs": [
				{
					"indexed": true,
					"internalType": "bytes32",
					"name": "role",
					"type": "bytes32"
				},
				{
					"indexed": true,
					"internalType": "address",
					"name": "account",
					"type": "address"
				},
				{
					"indexed": true,
					"internalType": "address",
					"name": "sender",
					"type": "address"
				}
			],
			"name": "RoleGranted",
			"type": "event"
		},
		{
			"anonymous": false,
			"inputs": [
				{
					"indexed": true,
					"internalType": "bytes32",
					"name": "role",
					"type": "bytes32"
				},
				{
					"indexed": true,
					"internalType": "address",
					"name": "account",
					"type": "address"
				},
				{
					"indexed": true,
					"internalType": "address",
					"name": "sender",
					"type": "address"
				}
			],
			"name": "RoleRevoked",
			"type": "event"
		},
		{
			"anonymous": false,
			"inputs": [
				{
					"indexed": true,
					"internalType": "address",
					"name": "from",
					"type": "address"
				},
				{
					"indexed": true,
					"internalType": "address",
					"name": "to",
					"type": "address"
				},
				{
					"indexed": false,
					"internalType": "uint256",
					"name": "value",
					"type": "uint256"
				}
			],
			"name": "Transfer",
			"type": "event"
		},
		{
			"inputs": [],
			"name": "BURNER_ROLE",
			"outputs": [
				{
					"internalType": "bytes32",
					"name": "",
					"type": "bytes32"
				}
			],
			"stateMutability": "view",
			"type": "function"
		},
		{
			"inputs": [],
			"name": "DEFAULT_ADMIN_ROLE",
			"outputs": [
				{
					"internalType": "bytes32",
					"name": "",
					"type": "bytes32"
				}
			],
			"stateMutability": "view",
			"type": "function"
		},
		{
			"inputs": [],
			"name": "MINTER_ROLE",
			"outputs": [
				{
					"internalType": "bytes32",
					"name": "",
					"type": "bytes32"
				}
			],
			"stateMutability": "view",
			"type": "function"
		},
		{
			"inputs": [
				{
					"internalType": "address",
					"name": "owner",
					"type": "address"
				},
				{
					"internalType": "address",
					"name": "spender",
					"type": "address"
				}
			],
			"name": "allowance",
			"outputs": [
				{
					"internalType": "uint256",
					"name": "",
					"type": "uint256"
				}
			],
			"stateMutability": "view",
			"type": "function"
		},
		{
			"inputs": [
				{
					"internalType": "address",
					"name": "spender",
					"type": "address"
				},
				{
					"internalType": "uint256",
					"name": "amount",
					"type": "uint256"
				}
			],
			"name": "approve",
			"outputs": [
				{
					"internalType": "bool",
					"name": "",
					"type": "bool"
				}
			],
			"stateMutability": "nonpayable",
			"type": "function"
		},
		{
			"inputs": [
				{
					"internalType": "address",
					"name": "account",
					"type": "address"
				}
			],
			"name": "balanceOf",
			"outputs": [
				{
					"internalType": "uint256",
					"name": "",
					"type": "uint256"
				}
			],
			"stateMutability": "view",
			"type": "function"
		},
		{
			"inputs": [
				{
					"internalType": "address",
					"name": "from",
					"type": "address"
				},
				{
					"internalType": "uint256",
					"name": "amount",
					"type": "uint256"
				}
			],
			"name": "burn",
			"outputs": [],
			"stateMutability": "nonpayable",
			"type": "function"
		},
		{
			"inputs": [],
			"name": "decimals",
			"outputs": [
				{
					"internalType": "uint8",
					"name": "",
					"type": "uint8"
				}
			],
			"stateMutability": "view",
			"type": "function"
		},
		{
			"inputs": [
				{
					"internalType": "address",
					"name": "spender",
					"type": "address"
				},
				{
					"internalType": "uint256",
					"name": "subtractedValue",
					"type": "uint256"
				}
			],
			"name": "decreaseAllowance",
			"outputs": [
				{
					"internalType": "bool",
					"name": "",
					"type": "bool"
				}
			],
			"stateMutability": "nonpayable",
			"type": "function"
		},
		{
			"inputs": [
				{
					"internalType": "bytes32",
					"name": "role",
					"type": "bytes32"
				}
			],
			"name": "getRoleAdmin",
			"outputs": [
				{
					"internalType": "bytes32",
					"name": "",
					"type": "bytes32"
				}
			],
			"stateMutability": "view",
			"type": "function"
		},
		{
			"inputs": [
				{
					"internalType": "bytes32",
					"name": "role",
					"type": "bytes32"
				},
				{
					"internalType": "address",
					"name": "account",
					"type": "address"
				}
			],
			"name": "grantRole",
			"outputs": [],
			"stateMutability": "nonpayable",
			"type": "function"
		},
		{
			"inputs": [
				{
					"internalType": "bytes32",
					"name": "role",
					"type": "bytes32"
				},
				{
					"internalType": "address",
					"name": "account",
					"type": "address"
				}
			],
			"name": "hasRole",
			"outputs": [
				{
					"internalType": "bool",
					"name": "",
					"type": "bool"
				}
			],
			"stateMutability": "view",
			"type": "function"
		},
		{
			"inputs": [
				{
					"internalType": "address",
					"name": "spender",
					"type": "address"
				},
				{
					"internalType": "uint256",
					"name": "addedValue",
					"type": "uint256"
				}
			],
			"name": "increaseAllowance",
			"outputs": [
				{
					"internalType": "bool",
					"name": "",
					"type": "bool"
				}
			],
			"stateMutability": "nonpayable",
			"type": "function"
		},
		{
			"inputs": [
				{
					"internalType": "address",
					"name": "to",
					"type": "address"
				},
				{
					"internalType": "uint256",
					"name": "amount",
					"type": "uint256"
				}
			],
			"name": "mint",
			"outputs": [],
			"stateMutability": "nonpayable",
			"type": "function"
		},
		{
			"inputs": [],
			"name": "name",
			"outputs": [
				{
					"internalType": "string",
					"name": "",
					"type": "string"
				}
			],
			"stateMutability": "view",
			"type": "function"
		},
		{
			"inputs": [
				{
					"internalType": "bytes32",
					"name": "role",
					"type": "bytes32"
				},
				{
					"internalType": "address",
					"name": "account",
					"type": "address"
				}
			],
			"name": "renounceRole",
			"outputs": [],
			"stateMutability": "nonpayable",
			"type": "function"
		},
		{
			"inputs": [
				{
					"internalType": "bytes32",
					"name": "role",
					"type": "bytes32"
				},
				{
					"internalType": "address",
					"name": "account",
					"type": "address"
				}
			],
			"name": "revokeRole",
			"outputs": [],
			"stateMutability": "nonpayable",
			"type": "function"
		},
		{
			"inputs": [
				{
					"internalType": "bytes4",
					"name": "interfaceId",
					"type": "bytes4"
				}
			],
			"name": "supportsInterface",
			"outputs": [
				{
					"internalType": "bool",
					"name": "",
					"type": "bool"
				}
			],
			"stateMutability": "view",
			"type": "function"
		},
		{
			"inputs": [],
			"name": "symbol",
			"outputs": [
				{
					"internalType": "string",
					"name": "",
					"type": "string"
				}
			],
			"stateMutability": "view",
			"type": "function"
		},
		{
			"inputs": [],
			"name": "totalSupply",
			"outputs": [
				{
					"internalType": "uint256",
					"name": "",
					"type": "uint256"
				}
			],
			"stateMutability": "view",
			"type": "function"
		},
		{
			"inputs": [
				{
					"internalType": "address",
					"name": "to",
					"type": "address"
				},
				{
					"internalType": "uint256",
					"name": "amount",
					"type": "uint256"
				}
			],
			"name": "transfer",
			"outputs": [
				{
					"internalType": "bool",
					"name": "",
					"type": "bool"
				}
			],
			"stateMutability": "nonpayable",
			"type": "function"
		},
		{
			"inputs": [
				{
					"internalType": "address",
					"name": "from",
					"type": "address"
				},
				{
					"internalType": "address",
					"name": "to",
					"type": "address"
				},
				{
					"internalType": "uint256",
					"name": "amount",
					"type": "uint256"
				}
			],
			"name": "transferFrom",
			"outputs": [
				{
					"internalType": "bool",
					"name": "",
					"type": "bool"
				}
			],
			"stateMutability": "nonpayable",
			"type": "function"
		}
	],
	"bytecode": "0x60806040523480156200001157600080fd5b506040518060400160405280601081526020017f54776974746572566f7465546f6b656e000000000000000000000000000000008152506040518060400160405280600381526020017f545654000000000000000000000000000000000000000000000000000000000081525081600390805190602001906200009692919062000248565b508060049080519060200190620000af92919062000248565b505050620000c76000801b33620000cd60201b60201c565b6200035d565b620000df8282620000e360201b60201c565b5050565b620000f58282620001d560201b60201c565b620001d15760016005600084815260200190815260200160002060000160008373ffffffffffffffffffffffffffffffffffffffff1673ffffffffffffffffffffffffffffffffffffffff16815260200190815260200160002060006101000a81548160ff021916908315150217905550620001766200024060201b60201c565b73ffffffffffffffffffffffffffffffffffffffff168173ffffffffffffffffffffffffffffffffffffffff16837f2f8788117e7eff1d82e926ec794901d17c78024a50270940304540a733656f0d60405160405180910390a45b5050565b60006005600084815260200190815260200160002060000160008373ffffffffffffffffffffffffffffffffffffffff1673ffffffffffffffffffffffffffffffffffffffff16815260200190815260200160002060009054906101000a900460ff16905092915050565b600033905090565b8280546200025690620002f8565b90600052602060002090601f0160209004810192826200027a5760008555620002c6565b82601f106200029557805160ff1916838001178555620002c6565b82800160010185558215620002c6579182015b82811115620002c5578251825591602001919060010190620002a8565b5b509050620002d59190620002d9565b5090565b5b80821115620002f4576000816000905550600101620002da565b5090565b600060028204905060018216806200031157607f821691505b602082108114156200032857620003276200032e565b5b50919050565b7f4e487b7100000000000000000000000000000000000000000000000000000000600052602260045260246000fd5b6127cc806200036d6000396000f3fe608060405234801561001057600080fd5b50600436106101425760003560e01c806340c10f19116100b8578063a217fddf1161007c578063a217fddf1461039d578063a457c2d7146103bb578063a9059cbb146103eb578063d53913931461041b578063d547741f14610439578063dd62ed3e1461045557610142565b806340c10f19146102e757806370a082311461030357806391d148541461033357806395d89b41146103635780639dc29fac1461038157610142565b8063248a9ca31161010a578063248a9ca314610213578063282c51f3146102435780632f2ff15d14610261578063313ce5671461027d57806336568abe1461029b57806339509351146102b757610142565b806301ffc9a71461014757806306fdde0314610177578063095ea7b31461019557806318160ddd146101c557806323b872dd146101e3575b600080fd5b610161600480360381019061015c9190611b39565b610485565b60405161016e9190611e72565b60405180910390f35b61017f6104ff565b60405161018c9190611ea8565b60405180910390f35b6101af60048036038101906101aa9190611a98565b610591565b6040516101bc9190611e72565b60405180910390f35b6101cd6105b4565b6040516101da919061208a565b60405180910390f35b6101fd60048036038101906101f89190611a49565b6105be565b60405161020a9190611e72565b60405180910390f35b61022d60048036038101906102289190611ad4565b6105ed565b60405161023a9190611e8d565b60405180910390f35b61024b61060d565b6040516102589190611e8d565b60405180910390f35b61027b60048036038101906102769190611afd565b610631565b005b61028561065a565b60405161029291906120a5565b60405180910390f35b6102b560048036038101906102b09190611afd565b610663565b005b6102d160048036038101906102cc9190611a98565b6106e6565b6040516102de9190611e72565b60405180910390f35b61030160048036038101906102fc9190611a98565b610790565b005b61031d600480360381019061031891906119e4565b610807565b60405161032a919061208a565b60405180910390f35b61034d60048036038101906103489190611afd565b61084f565b60405161035a9190611e72565b60405180910390f35b61036b6108ba565b6040516103789190611ea8565b60405180910390f35b61039b60048036038101906103969190611a98565b61094c565b005b6103a56109c3565b6040516103b29190611e8d565b60405180910390f35b6103d560048036038101906103d09190611a98565b6109ca565b6040516103e29190611e72565b60405180910390f35b61040560048036038101906104009190611a98565b610ab4565b6040516104129190611e72565b60405180910390f35b610423610ad7565b6040516104309190611e8d565b60405180910390f35b610453600480360381019061044e9190611afd565b610afb565b005b61046f600480360381019061046a9190611a0d565b610b24565b60405161047c919061208a565b60405180910390f35b60007f7965db0b000000000000000000000000000000000000000000000000000000007bffffffffffffffffffffffffffffffffffffffffffffffffffffffff1916827bffffffffffffffffffffffffffffffffffffffffffffffffffffffff191614806104f857506104f782610bab565b5b9050919050565b60606003805461050e906122b3565b80601f016020809104026020016040519081016040528092919081815260200182805461053a906122b3565b80156105875780601f1061055c57610100808354040283529160200191610587565b820191906000526020600020905b81548152906001019060200180831161056a57829003601f168201915b5050505050905090565b60008061059c610c15565b90506105a9818585610c1d565b600191505092915050565b6000600254905090565b6000806105c9610c15565b90506105d6858285610de8565b6105e1858585610e74565b60019150509392505050565b600060056000838152602001908152602001600020600101549050919050565b7f3c11d16cbaffd01df69ce1c404f6340ee057498f5f00246190ea54220576a84881565b61063a826105ed565b61064b81610646610c15565b6110f5565b6106558383611192565b505050565b60006012905090565b61066b610c15565b73ffffffffffffffffffffffffffffffffffffffff168173ffffffffffffffffffffffffffffffffffffffff16146106d8576040517f08c379a00000000000000000000000000000000000000000000000000000000081526004016106cf9061204a565b60405180910390fd5b6106e28282611273565b5050565b6000806106f1610c15565b9050610785818585600160008673ffffffffffffffffffffffffffffffffffffffff1673ffffffffffffffffffffffffffffffffffffffff16815260200190815260200160002060008973ffffffffffffffffffffffffffffffffffffffff1673ffffffffffffffffffffffffffffffffffffffff1681526020019081526020016000205461078091906120e7565b610c1d565b600191505092915050565b6107ba7f9f2df0fed2c77648de5860a4cc508cd0818c85b8b8a1ab4ceeef8d981c8956a63361084f565b6107f9576040517f08c379a00000000000000000000000000000000000000000000000000000000081526004016107f090611f8a565b60405180910390fd5b6108038282611355565b5050565b60008060008373ffffffffffffffffffffffffffffffffffffffff1673ffffffffffffffffffffffffffffffffffffffff168152602001908152602001600020549050919050565b60006005600084815260200190815260200160002060000160008373ffffffffffffffffffffffffffffffffffffffff1673ffffffffffffffffffffffffffffffffffffffff16815260200190815260200160002060009054906101000a900460ff16905092915050565b6060600480546108c9906122b3565b80601f01602080910402602001604051908101604052809291908181526020018280546108f5906122b3565b80156109425780601f1061091757610100808354040283529160200191610942565b820191906000526020600020905b81548152906001019060200180831161092557829003601f168201915b5050505050905090565b6109767f3c11d16cbaffd01df69ce1c404f6340ee057498f5f00246190ea54220576a8483361084f565b6109b5576040517f08c379a00000000000000000000000000000000000000000000000000000000081526004016109ac90611faa565b60405180910390fd5b6109bf82826114b5565b5050565b6000801b81565b6000806109d5610c15565b90506000600160008373ffffffffffffffffffffffffffffffffffffffff1673ffffffffffffffffffffffffffffffffffffffff16815260200190815260200160002060008673ffffffffffffffffffffffffffffffffffffffff1673ffffffffffffffffffffffffffffffffffffffff16815260200190815260200160002054905083811015610a9b576040517f08c379a0000000000000000000000000000000000000000000000000000000008152600401610a929061202a565b60405180910390fd5b610aa88286868403610c1d565b60019250505092915050565b600080610abf610c15565b9050610acc818585610e74565b600191505092915050565b7f9f2df0fed2c77648de5860a4cc508cd0818c85b8b8a1ab4ceeef8d981c8956a681565b610b04826105ed565b610b1581610b10610c15565b6110f5565b610b1f8383611273565b505050565b6000600160008473ffffffffffffffffffffffffffffffffffffffff1673ffffffffffffffffffffffffffffffffffffffff16815260200190815260200160002060008373ffffffffffffffffffffffffffffffffffffffff1673ffffffffffffffffffffffffffffffffffffffff16815260200190815260200160002054905092915050565b60007f01ffc9a7000000000000000000000000000000000000000000000000000000007bffffffffffffffffffffffffffffffffffffffffffffffffffffffff1916827bffffffffffffffffffffffffffffffffffffffffffffffffffffffff1916149050919050565b600033905090565b600073ffffffffffffffffffffffffffffffffffffffff168373ffffffffffffffffffffffffffffffffffffffff161415610c8d576040517f08c379a0000000000000000000000000000000000000000000000000000000008152600401610c849061200a565b60405180910390fd5b600073ffffffffffffffffffffffffffffffffffffffff168273ffffffffffffffffffffffffffffffffffffffff161415610cfd576040517f08c379a0000000000000000000000000000000000000000000000000000000008152600401610cf490611f2a565b60405180910390fd5b80600160008573ffffffffffffffffffffffffffffffffffffffff1673ffffffffffffffffffffffffffffffffffffffff16815260200190815260200160002060008473ffffffffffffffffffffffffffffffffffffffff1673ffffffffffffffffffffffffffffffffffffffff168152602001908152602001600020819055508173ffffffffffffffffffffffffffffffffffffffff168373ffffffffffffffffffffffffffffffffffffffff167f8c5be1e5ebec7d5bd14f71427d1e84f3dd0314c0f7b2291e5b200ac8c7c3b92583604051610ddb919061208a565b60405180910390a3505050565b6000610df48484610b24565b90507fffffffffffffffffffffffffffffffffffffffffffffffffffffffffffffffff8114610e6e5781811015610e60576040517f08c379a0000000000000000000000000000000000000000000000000000000008152600401610e5790611f4a565b60405180910390fd5b610e6d8484848403610c1d565b5b50505050565b600073ffffffffffffffffffffffffffffffffffffffff168373ffffffffffffffffffffffffffffffffffffffff161415610ee4576040517f08c379a0000000000000000000000000000000000000000000000000000000008152600401610edb90611fea565b60405180910390fd5b600073ffffffffffffffffffffffffffffffffffffffff168273ffffffffffffffffffffffffffffffffffffffff161415610f54576040517f08c379a0000000000000000000000000000000000000000000000000000000008152600401610f4b90611eea565b60405180910390fd5b610f5f83838361168c565b60008060008573ffffffffffffffffffffffffffffffffffffffff1673ffffffffffffffffffffffffffffffffffffffff16815260200190815260200160002054905081811015610fe5576040517f08c379a0000000000000000000000000000000000000000000000000000000008152600401610fdc90611f6a565b60405180910390fd5b8181036000808673ffffffffffffffffffffffffffffffffffffffff1673ffffffffffffffffffffffffffffffffffffffff16815260200190815260200160002081905550816000808573ffffffffffffffffffffffffffffffffffffffff1673ffffffffffffffffffffffffffffffffffffffff168152602001908152602001600020600082825461107891906120e7565b925050819055508273ffffffffffffffffffffffffffffffffffffffff168473ffffffffffffffffffffffffffffffffffffffff167fddf252ad1be2c89b69c2b068fc378daa952ba7f163c4a11628f55a4df523b3ef846040516110dc919061208a565b60405180910390a36110ef848484611691565b50505050565b6110ff828261084f565b61118e576111248173ffffffffffffffffffffffffffffffffffffffff166014611696565b6111328360001c6020611696565b604051602001611143929190611e38565b6040516020818303038152906040526040517f08c379a00000000000000000000000000000000000000000000000000000000081526004016111859190611ea8565b60405180910390fd5b5050565b61119c828261084f565b61126f5760016005600084815260200190815260200160002060000160008373ffffffffffffffffffffffffffffffffffffffff1673ffffffffffffffffffffffffffffffffffffffff16815260200190815260200160002060006101000a81548160ff021916908315150217905550611214610c15565b73ffffffffffffffffffffffffffffffffffffffff168173ffffffffffffffffffffffffffffffffffffffff16837f2f8788117e7eff1d82e926ec794901d17c78024a50270940304540a733656f0d60405160405180910390a45b5050565b61127d828261084f565b156113515760006005600084815260200190815260200160002060000160008373ffffffffffffffffffffffffffffffffffffffff1673ffffffffffffffffffffffffffffffffffffffff16815260200190815260200160002060006101000a81548160ff0219169083151502179055506112f6610c15565b73ffffffffffffffffffffffffffffffffffffffff168173ffffffffffffffffffffffffffffffffffffffff16837ff6391f5c32d9c69d2a47ea670b442974b53935d1edc7fd64eb21e047a839171b60405160405180910390a45b5050565b600073ffffffffffffffffffffffffffffffffffffffff168273ffffffffffffffffffffffffffffffffffffffff1614156113c5576040517f08c379a00000000000000000000000000000000000000000000000000000000081526004016113bc9061206a565b60405180910390fd5b6113d16000838361168c565b80600260008282546113e391906120e7565b92505081905550806000808473ffffffffffffffffffffffffffffffffffffffff1673ffffffffffffffffffffffffffffffffffffffff168152602001908152602001600020600082825461143891906120e7565b925050819055508173ffffffffffffffffffffffffffffffffffffffff16600073ffffffffffffffffffffffffffffffffffffffff167fddf252ad1be2c89b69c2b068fc378daa952ba7f163c4a11628f55a4df523b3ef8360405161149d919061208a565b60405180910390a36114b160008383611691565b5050565b600073ffffffffffffffffffffffffffffffffffffffff168273ffffffffffffffffffffffffffffffffffffffff161415611525576040517f08c379a000000000000000000000000000000000000000000000000000000000815260040161151c90611fca565b60405180910390fd5b6115318260008361168c565b60008060008473ffffffffffffffffffffffffffffffffffffffff1673ffffffffffffffffffffffffffffffffffffffff168152602001908152602001600020549050818110156115b7576040517f08c379a00000000000000000000000000000000000000000000000000000000081526004016115ae90611f0a565b60405180910390fd5b8181036000808573ffffffffffffffffffffffffffffffffffffffff1673ffffffffffffffffffffffffffffffffffffffff16815260200190815260200160002081905550816002600082825461160e9190612197565b92505081905550600073ffffffffffffffffffffffffffffffffffffffff168373ffffffffffffffffffffffffffffffffffffffff167fddf252ad1be2c89b69c2b068fc378daa952ba7f163c4a11628f55a4df523b3ef84604051611673919061208a565b60405180910390a361168783600084611691565b505050565b505050565b505050565b6060600060028360026116a9919061213d565b6116b391906120e7565b67ffffffffffffffff8111156116f2577f4e487b7100000000000000000000000000000000000000000000000000000000600052604160045260246000fd5b6040519080825280601f01601f1916602001820160405280156117245781602001600182028036833780820191505090505b5090507f300000000000000000000000000000000000000000000000000000000000000081600081518110611782577f4e487b7100000000000000000000000000000000000000000000000000000000600052603260045260246000fd5b60200101907effffffffffffffffffffffffffffffffffffffffffffffffffffffffffffff1916908160001a9053507f78000000000000000000000000000000000000000000000000000000000000008160018151811061180c577f4e487b7100000000000000000000000000000000000000000000000000000000600052603260045260246000fd5b60200101907effffffffffffffffffffffffffffffffffffffffffffffffffffffffffffff1916908160001a9053506000600184600261184c919061213d565b61185691906120e7565b90505b6001811115611942577f3031323334353637383961626364656600000000000000000000000000000000600f8616601081106118be577f4e487b7100000000000000000000000000000000000000000000000000000000600052603260045260246000fd5b1a60f81b8282815181106118fb577f4e487b7100000000000000000000000000000000000000000000000000000000600052603260045260246000fd5b60200101907effffffffffffffffffffffffffffffffffffffffffffffffffffffffffffff1916908160001a905350600485901c94508061193b90612289565b9050611859565b5060008414611986576040517f08c379a000000000000000000000000000000000000000000000000000000000815260040161197d90611eca565b60405180910390fd5b8091505092915050565b60008135905061199f8161273a565b92915050565b6000813590506119b481612751565b92915050565b6000813590506119c981612768565b92915050565b6000813590506119de8161277f565b92915050565b6000602082840312156119f657600080fd5b6000611a0484828501611990565b91505092915050565b60008060408385031215611a2057600080fd5b6000611a2e85828601611990565b9250506020611a3f85828601611990565b9150509250929050565b600080600060608486031215611a5e57600080fd5b6000611a6c86828701611990565b9350506020611a7d86828701611990565b9250506040611a8e868287016119cf565b9150509250925092565b60008060408385031215611aab57600080fd5b6000611ab985828601611990565b9250506020611aca858286016119cf565b9150509250929050565b600060208284031215611ae657600080fd5b6000611af4848285016119a5565b91505092915050565b60008060408385031215611b1057600080fd5b6000611b1e858286016119a5565b9250506020611b2f85828601611990565b9150509250929050565b600060208284031215611b4b57600080fd5b6000611b59848285016119ba565b91505092915050565b611b6b816121dd565b82525050565b611b7a816121e9565b82525050565b6000611b8b826120c0565b611b9581856120cb565b9350611ba5818560208601612256565b611bae81612343565b840191505092915050565b6000611bc4826120c0565b611bce81856120dc565b9350611bde818560208601612256565b80840191505092915050565b6000611bf76020836120cb565b9150611c0282612354565b602082019050919050565b6000611c1a6023836120cb565b9150611c258261237d565b604082019050919050565b6000611c3d6022836120cb565b9150611c48826123cc565b604082019050919050565b6000611c606022836120cb565b9150611c6b8261241b565b604082019050919050565b6000611c83601d836120cb565b9150611c8e8261246a565b602082019050919050565b6000611ca66026836120cb565b9150611cb182612493565b604082019050919050565b6000611cc96016836120cb565b9150611cd4826124e2565b602082019050919050565b6000611cec6016836120cb565b9150611cf78261250b565b602082019050919050565b6000611d0f6021836120cb565b9150611d1a82612534565b604082019050919050565b6000611d326025836120cb565b9150611d3d82612583565b604082019050919050565b6000611d556024836120cb565b9150611d60826125d2565b604082019050919050565b6000611d786017836120dc565b9150611d8382612621565b601782019050919050565b6000611d9b6025836120cb565b9150611da68261264a565b604082019050919050565b6000611dbe6011836120dc565b9150611dc982612699565b601182019050919050565b6000611de1602f836120cb565b9150611dec826126c2565b604082019050919050565b6000611e04601f836120cb565b9150611e0f82612711565b602082019050919050565b611e238161223f565b82525050565b611e3281612249565b82525050565b6000611e4382611d6b565b9150611e4f8285611bb9565b9150611e5a82611db1565b9150611e668284611bb9565b91508190509392505050565b6000602082019050611e876000830184611b62565b92915050565b6000602082019050611ea26000830184611b71565b92915050565b60006020820190508181036000830152611ec28184611b80565b905092915050565b60006020820190508181036000830152611ee381611bea565b9050919050565b60006020820190508181036000830152611f0381611c0d565b9050919050565b60006020820190508181036000830152611f2381611c30565b9050919050565b60006020820190508181036000830152611f4381611c53565b9050919050565b60006020820190508181036000830152611f6381611c76565b9050919050565b60006020820190508181036000830152611f8381611c99565b9050919050565b60006020820190508181036000830152611fa381611cbc565b9050919050565b60006020820190508181036000830152611fc381611cdf565b9050919050565b60006020820190508181036000830152611fe381611d02565b9050919050565b6000602082019050818103600083015261200381611d25565b9050919050565b6000602082019050818103600083015261202381611d48565b9050919050565b6000602082019050818103600083015261204381611d8e565b9050919050565b6000602082019050818103600083015261206381611dd4565b9050919050565b6000602082019050818103600083015261208381611df7565b9050919050565b600060208201905061209f6000830184611e1a565b92915050565b60006020820190506120ba6000830184611e29565b92915050565b600081519050919050565b600082825260208201905092915050565b600081905092915050565b60006120f28261223f565b91506120fd8361223f565b9250827fffffffffffffffffffffffffffffffffffffffffffffffffffffffffffffffff03821115612132576121316122e5565b5b828201905092915050565b60006121488261223f565b91506121538361223f565b9250817fffffffffffffffffffffffffffffffffffffffffffffffffffffffffffffffff048311821515161561218c5761218b6122e5565b5b828202905092915050565b60006121a28261223f565b91506121ad8361223f565b9250828210156121c0576121bf6122e5565b5b828203905092915050565b60006121d68261221f565b9050919050565b60008115159050919050565b6000819050919050565b60007fffffffff0000000000000000000000000000000000000000000000000000000082169050919050565b600073ffffffffffffffffffffffffffffffffffffffff82169050919050565b6000819050919050565b600060ff82169050919050565b60005b83811015612274578082015181840152602081019050612259565b83811115612283576000848401525b50505050565b60006122948261223f565b915060008214156122a8576122a76122e5565b5b600182039050919050565b600060028204905060018216806122cb57607f821691505b602082108114156122df576122de612314565b5b50919050565b7f4e487b7100000000000000000000000000000000000000000000000000000000600052601160045260246000fd5b7f4e487b7100000000000000000000000000000000000000000000000000000000600052602260045260246000fd5b6000601f19601f8301169050919050565b7f537472696e67733a20686578206c656e67746820696e73756666696369656e74600082015250565b7f45524332303a207472616e7366657220746f20746865207a65726f206164647260008201527f6573730000000000000000000000000000000000000000000000000000000000602082015250565b7f45524332303a206275726e20616d6f756e7420657863656564732062616c616e60008201527f6365000000000000000000000000000000000000000000000000000000000000602082015250565b7f45524332303a20617070726f766520746f20746865207a65726f20616464726560008201527f7373000000000000000000000000000000000000000000000000000000000000602082015250565b7f45524332303a20696e73756666696369656e7420616c6c6f77616e6365000000600082015250565b7f45524332303a207472616e7366657220616d6f756e742065786365656473206260008201527f616c616e63650000000000000000000000000000000000000000000000000000602082015250565b7f43616c6c6572206973206e6f742061206d696e74657200000000000000000000600082015250565b7f43616c6c6572206973206e6f742061206275726e657200000000000000000000600082015250565b7f45524332303a206275726e2066726f6d20746865207a65726f2061646472657360008201527f7300000000000000000000000000000000000000000000000000000000000000602082015250565b7f45524332303a207472616e736665722066726f6d20746865207a65726f20616460008201527f6472657373000000000000000000000000000000000000000000000000000000602082015250565b7f45524332303a20617070726f76652066726f6d20746865207a65726f2061646460008201527f7265737300000000000000000000000000000000000000000000000000000000602082015250565b7f416363657373436f6e74726f6c3a206163636f756e7420000000000000000000600082015250565b7f45524332303a2064656372656173656420616c6c6f77616e63652062656c6f7760008201527f207a65726f000000000000000000000000000000000000000000000000000000602082015250565b7f206973206d697373696e6720726f6c6520000000000000000000000000000000600082015250565b7f416363657373436f6e74726f6c3a2063616e206f6e6c792072656e6f756e636560008201527f20726f6c657320666f722073656c660000000000000000000000000000000000602082015250565b7f45524332303a206d696e7420746f20746865207a65726f206164647265737300600082015250565b612743816121cb565b811461274e57600080fd5b50565b61275a816121e9565b811461276557600080fd5b50565b612771816121f3565b811461277c57600080fd5b50565b6127888161223f565b811461279357600080fd5b5056fea2646970667358221220edf219d76c8cf3de016246185c5c59600d6ef1e3abcfa240c1715b995ca628a564736f6c63430008040033",
	"linkReferences": {},
	"deployedLinkReferences": {}
}