{
	"_format": "hh-sol-artifact-1",
	"contractName": "TweetVoter",
	"sourceName": "contracts/TweetVoter.sol",
	"abi": [
		{
			"inputs": [
				{
					"internalType": "address",
					"name": "_tvTokenContract",
					"type": "address"
				}
			],
			"stateMutability": "nonpayable",
			"type": "constructor"
		},
		{
			"anonymous": false,
			"inputs": [
				{
					"indexed": false,
					"internalType": "uint256",
					"name": "tweetId",
					"type": "uint256"
				},
				{
					"indexed": false,
					"internalType": "uint256",
					"name": "likes",
					"type": "uint256"
				},
				{
					"indexed": false,
					"internalType": "uint256",
					"name": "timestamp",
					"type": "uint256"
				}
			],
			"name": "LikedTweet",
			"type": "event"
		},
		{
			"anonymous": false,
			"inputs": [
				{
					"indexed": false,
					"internalType": "string",
					"name": "func",
					"type": "string"
				},
				{
					"indexed": false,
					"internalType": "address",
					"name": "sender",
					"type": "address"
				},
				{
					"indexed": false,
					"internalType": "uint256",
					"name": "value",
					"type": "uint256"
				},
				{
					"indexed": false,
					"internalType": "bytes",
					"name": "data",
					"type": "bytes"
				}
			],
			"name": "Log",
			"type": "event"
		},
		{
			"anonymous": false,
			"inputs": [
				{
					"indexed": true,
					"internalType": "address",
					"name": "previousOwner",
					"type": "address"
				},
				{
					"indexed": true,
					"internalType": "address",
					"name": "newOwner",
					"type": "address"
				}
			],
			"name": "OwnershipTransferred",
			"type": "event"
		},
		{
			"anonymous": false,
			"inputs": [
				{
					"indexed": true,
					"internalType": "address",
					"name": "user",
					"type": "address"
				},
				{
					"indexed": true,
					"internalType": "uint256",
					"name": "tweetId",
					"type": "uint256"
				},
				{
					"indexed": false,
					"internalType": "uint256",
					"name": "timestamp",
					"type": "uint256"
				}
			],
			"name": "SubmitTweet",
			"type": "event"
		},
		{
			"stateMutability": "payable",
			"type": "fallback"
		},
		{
			"inputs": [
				{
					"internalType": "address",
					"name": "",
					"type": "address"
				},
				{
					"internalType": "uint256",
					"name": "",
					"type": "uint256"
				}
			],
			"name": "accountToTweetIds",
			"outputs": [
				{
					"internalType": "uint256",
					"name": "",
					"type": "uint256"
				}
			],
			"stateMutability": "view",
			"type": "function"
		},
		{
			"inputs": [
				{
					"internalType": "address",
					"name": "",
					"type": "address"
				}
			],
			"name": "accountTweetsAmount",
			"outputs": [
				{
					"internalType": "uint256",
					"name": "",
					"type": "uint256"
				}
			],
			"stateMutability": "view",
			"type": "function"
		},
		{
			"inputs": [
				{
					"internalType": "address",
					"name": "account",
					"type": "address"
				}
			],
			"name": "getAccountTweetsAmount",
			"outputs": [
				{
					"internalType": "uint256",
					"name": "",
					"type": "uint256"
				}
			],
			"stateMutability": "view",
			"type": "function"
		},
		{
			"inputs": [
				{
					"internalType": "address",
					"name": "account",
					"type": "address"
				}
			],
			"name": "getAllTweetIdsByAccount",
			"outputs": [
				{
					"internalType": "uint256[]",
					"name": "",
					"type": "uint256[]"
				}
			],
			"stateMutability": "view",
			"type": "function"
		},
		{
			"inputs": [],
			"name": "getAllTweets",
			"outputs": [
				{
					"components": [
						{
							"internalType": "uint256",
							"name": "tweetId",
							"type": "uint256"
						},
						{
							"internalType": "string",
							"name": "tweetUrl",
							"type": "string"
						},
						{
							"internalType": "address",
							"name": "feeReceiver",
							"type": "address"
						},
						{
							"internalType": "address",
							"name": "tweetOwner",
							"type": "address"
						},
						{
							"internalType": "uint256",
							"name": "likes",
							"type": "uint256"
						},
						{
							"internalType": "uint256",
							"name": "timestamp",
							"type": "uint256"
						}
					],
					"internalType": "struct TweetVoter.Tweet[]",
					"name": "",
					"type": "tuple[]"
				}
			],
			"stateMutability": "view",
			"type": "function"
		},
		{
			"inputs": [],
			"name": "getFees",
			"outputs": [
				{
					"components": [
						{
							"internalType": "uint256",
							"name": "platformFee",
							"type": "uint256"
						},
						{
							"internalType": "uint256",
							"name": "tweetTokenFee",
							"type": "uint256"
						},
						{
							"internalType": "uint256",
							"name": "tweetWeiFee",
							"type": "uint256"
						},
						{
							"internalType": "uint256",
							"name": "likeTokenFee",
							"type": "uint256"
						},
						{
							"internalType": "uint256",
							"name": "likeWeiFee",
							"type": "uint256"
						}
					],
					"internalType": "struct TweetVoter.PlatformFees",
					"name": "",
					"type": "tuple"
				}
			],
			"stateMutability": "view",
			"type": "function"
		},
		{
			"inputs": [],
			"name": "getTotalTweets",
			"outputs": [
				{
					"internalType": "uint256",
					"name": "",
					"type": "uint256"
				}
			],
			"stateMutability": "view",
			"type": "function"
		},
		{
			"inputs": [
				{
					"internalType": "uint256",
					"name": "tweetId",
					"type": "uint256"
				}
			],
			"name": "getTweetById",
			"outputs": [
				{
					"components": [
						{
							"internalType": "uint256",
							"name": "tweetId",
							"type": "uint256"
						},
						{
							"internalType": "string",
							"name": "tweetUrl",
							"type": "string"
						},
						{
							"internalType": "address",
							"name": "feeReceiver",
							"type": "address"
						},
						{
							"internalType": "address",
							"name": "tweetOwner",
							"type": "address"
						},
						{
							"internalType": "uint256",
							"name": "likes",
							"type": "uint256"
						},
						{
							"internalType": "uint256",
							"name": "timestamp",
							"type": "uint256"
						}
					],
					"internalType": "struct TweetVoter.Tweet",
					"name": "",
					"type": "tuple"
				}
			],
			"stateMutability": "view",
			"type": "function"
		},
		{
			"inputs": [
				{
					"internalType": "uint256",
					"name": "tweetId",
					"type": "uint256"
				}
			],
			"name": "likeTweet",
			"outputs": [],
			"stateMutability": "payable",
			"type": "function"
		},
		{
			"inputs": [],
			"name": "owner",
			"outputs": [
				{
					"internalType": "address",
					"name": "",
					"type": "address"
				}
			],
			"stateMutability": "view",
			"type": "function"
		},
		{
			"inputs": [],
			"name": "renounceOwnership",
			"outputs": [],
			"stateMutability": "nonpayable",
			"type": "function"
		},
		{
			"inputs": [
				{
					"internalType": "uint256",
					"name": "_likeTokenFee",
					"type": "uint256"
				}
			],
			"name": "setLikeTokenFee",
			"outputs": [],
			"stateMutability": "nonpayable",
			"type": "function"
		},
		{
			"inputs": [
				{
					"internalType": "uint256",
					"name": "_likeWeiFee",
					"type": "uint256"
				}
			],
			"name": "setLikeWeiFee",
			"outputs": [],
			"stateMutability": "nonpayable",
			"type": "function"
		},
		{
			"inputs": [
				{
					"internalType": "uint256",
					"name": "_platformFee",
					"type": "uint256"
				}
			],
			"name": "setPlatformFee",
			"outputs": [],
			"stateMutability": "nonpayable",
			"type": "function"
		},
		{
			"inputs": [
				{
					"internalType": "uint256",
					"name": "_tweetTokenFee",
					"type": "uint256"
				}
			],
			"name": "setTweetTokenFee",
			"outputs": [],
			"stateMutability": "nonpayable",
			"type": "function"
		},
		{
			"inputs": [
				{
					"internalType": "uint256",
					"name": "_tweetWeiFee",
					"type": "uint256"
				}
			],
			"name": "setTweetWeiFee",
			"outputs": [],
			"stateMutability": "nonpayable",
			"type": "function"
		},
		{
			"inputs": [
				{
					"internalType": "string",
					"name": "_tweetUrl",
					"type": "string"
				},
				{
					"internalType": "address",
					"name": "_feeReceiver",
					"type": "address"
				}
			],
			"name": "submitTweet",
			"outputs": [],
			"stateMutability": "payable",
			"type": "function"
		},
		{
			"inputs": [
				{
					"internalType": "address",
					"name": "newOwner",
					"type": "address"
				}
			],
			"name": "transferOwnership",
			"outputs": [],
			"stateMutability": "nonpayable",
			"type": "function"
		},
		{
			"inputs": [
				{
					"internalType": "uint256",
					"name": "",
					"type": "uint256"
				}
			],
			"name": "tweetIdToTweet",
			"outputs": [
				{
					"internalType": "uint256",
					"name": "tweetId",
					"type": "uint256"
				},
				{
					"internalType": "string",
					"name": "tweetUrl",
					"type": "string"
				},
				{
					"internalType": "address",
					"name": "feeReceiver",
					"type": "address"
				},
				{
					"internalType": "address",
					"name": "tweetOwner",
					"type": "address"
				},
				{
					"internalType": "uint256",
					"name": "likes",
					"type": "uint256"
				},
				{
					"internalType": "uint256",
					"name": "timestamp",
					"type": "uint256"
				}
			],
			"stateMutability": "view",
			"type": "function"
		},
		{
			"inputs": [
				{
					"internalType": "address payable",
					"name": "to",
					"type": "address"
				},
				{
					"internalType": "uint256",
					"name": "amount",
					"type": "uint256"
				}
			],
			"name": "withdraw",
			"outputs": [],
			"stateMutability": "nonpayable",
			"type": "function"
		},
		{
			"stateMutability": "payable",
			"type": "receive"
		}
	],
	"bytecode": "0x60806040526000600455670de0b6b3a76400006005556040518060a00160405280600581526020016005546005620000389190620003c6565b815260200166024f2beb1aa000815260200160055460016200005b9190620003c6565b815260200165886c98b76000815250600660008201518160000155602082015181600101556040820151816002015560608201518160030155608082015181600401555050348015620000ad57600080fd5b5060405162003335380380620033358339818101604052810190620000d3919062000319565b620000f3620000e76200016a60201b60201c565b6200017260201b60201c565b6200012260405180606001604052806021815260200162003314602191396200023660201b62001abd1760201c565b80600160006101000a81548173ffffffffffffffffffffffffffffffffffffffff021916908373ffffffffffffffffffffffffffffffffffffffff16021790555050620004f5565b600033905090565b60008060009054906101000a900473ffffffffffffffffffffffffffffffffffffffff169050816000806101000a81548173ffffffffffffffffffffffffffffffffffffffff021916908373ffffffffffffffffffffffffffffffffffffffff1602179055508173ffffffffffffffffffffffffffffffffffffffff168173ffffffffffffffffffffffffffffffffffffffff167f8be0079c531659141344cd1fd0a4f28419497f9722a3daafe3b4186f6b6457e060405160405180910390a35050565b620002d6816040516024016200024d919062000386565b6040516020818303038152906040527f41304fac000000000000000000000000000000000000000000000000000000007bffffffffffffffffffffffffffffffffffffffffffffffffffffffff19166020820180517bffffffffffffffffffffffffffffffffffffffffffffffffffffffff8381831617835250505050620002d960201b60201c565b50565b60008151905060006a636f6e736f6c652e6c6f679050602083016000808483855afa5050505050565b6000815190506200031381620004db565b92915050565b6000602082840312156200032c57600080fd5b60006200033c8482850162000302565b91505092915050565b60006200035282620003aa565b6200035e8185620003b5565b93506200037081856020860162000465565b6200037b81620004ca565b840191505092915050565b60006020820190508181036000830152620003a2818462000345565b905092915050565b600081519050919050565b600082825260208201905092915050565b6000620003d3826200045b565b9150620003e0836200045b565b9250817fffffffffffffffffffffffffffffffffffffffffffffffffffffffffffffffff04831182151516156200041c576200041b6200049b565b5b828202905092915050565b600062000434826200043b565b9050919050565b600073ffffffffffffffffffffffffffffffffffffffff82169050919050565b6000819050919050565b60005b838110156200048557808201518184015260208101905062000468565b8381111562000495576000848401525b50505050565b7f4e487b7100000000000000000000000000000000000000000000000000000000600052601160045260246000fd5b6000601f19601f8301169050919050565b620004e68162000427565b8114620004f257600080fd5b50565b612e0f80620005056000396000f3fe6080604052600436106101235760003560e01c80638da5cb5b116100a0578063e04d795e11610064578063e04d795e14610436578063e5c6e7b914610473578063ef8f7f751461049c578063f2fde38b146104de578063f3fef3a31461050757610163565b80638da5cb5b1461034f57806393f11c271461037a578063bcbf8506146103a5578063cf879763146103e2578063db8d55f11461040b57610163565b80635ffc6ceb116100e75780635ffc6ceb146102ae578063715018a6146102ca57806372a21f8b146102e157806384d20da91461030a578063870427b31461032657610163565b80630bf692fc146101a357806312e8e2c3146101e057806314e9c07b1461020957806335b4908b14610246578063532561351461028357610163565b36610163577ff7f75251dee7d7fc22deac3247729ebe7c86541f35930bf10c2a4207479a3b6c333460405161015992919061265f565b60405180910390a1005b7ff7f75251dee7d7fc22deac3247729ebe7c86541f35930bf10c2a4207479a3b6c3334600036604051610199949392919061260c565b60405180910390a1005b3480156101af57600080fd5b506101ca60048036038101906101c59190611e51565b610530565b6040516101d791906124e8565b60405180910390f35b3480156101ec57600080fd5b5061020760048036038101906102029190611f46565b6105c7565b005b34801561021557600080fd5b50610230600480360381019061022b9190611e51565b610650565b60405161023d91906126eb565b60405180910390f35b34801561025257600080fd5b5061026d60048036038101906102689190611e51565b61069c565b60405161027a91906126eb565b60405180910390f35b34801561028f57600080fd5b506102986106b4565b6040516102a591906124c6565b60405180910390f35b6102c860048036038101906102c39190611f46565b610928565b005b3480156102d657600080fd5b506102df610cf5565b005b3480156102ed57600080fd5b5061030860048036038101906103039190611f46565b610d7d565b005b610324600480360381019061031f9190611ef2565b610e06565b005b34801561033257600080fd5b5061034d60048036038101906103489190611f46565b6113c0565b005b34801561035b57600080fd5b50610364611449565b6040516103719190612482565b60405180910390f35b34801561038657600080fd5b5061038f611472565b60405161039c91906126eb565b60405180910390f35b3480156103b157600080fd5b506103cc60048036038101906103c79190611f46565b61147c565b6040516103d991906126c9565b60405180910390f35b3480156103ee57600080fd5b5061040960048036038101906104049190611f46565b611605565b005b34801561041757600080fd5b5061042061168e565b60405161042d91906126ae565b60405180910390f35b34801561044257600080fd5b5061045d60048036038101906104589190611eb6565b6116da565b60405161046a91906126eb565b60405180910390f35b34801561047f57600080fd5b5061049a60048036038101906104959190611f46565b61170b565b005b3480156104a857600080fd5b506104c360048036038101906104be9190611f46565b611794565b6040516104d596959493929190612706565b60405180910390f35b3480156104ea57600080fd5b5061050560048036038101906105009190611e51565b611898565b005b34801561051357600080fd5b5061052e60048036038101906105299190611e7a565b611990565b005b6060600c60008373ffffffffffffffffffffffffffffffffffffffff1673ffffffffffffffffffffffffffffffffffffffff1681526020019081526020016000208054806020026020016040519081016040528092919081815260200182805480156105bb57602002820191906000526020600020905b8154815260200190600101908083116105a7575b50505050509050919050565b6105cf611b56565b73ffffffffffffffffffffffffffffffffffffffff166105ed611449565b73ffffffffffffffffffffffffffffffffffffffff1614610643576040517f08c379a000000000000000000000000000000000000000000000000000000000815260040161063a9061256c565b60405180910390fd5b8060066000018190555050565b6000600c60008373ffffffffffffffffffffffffffffffffffffffff1673ffffffffffffffffffffffffffffffffffffffff168152602001908152602001600020805490509050919050565b600b6020528060005260406000206000915090505481565b6060600060045467ffffffffffffffff8111156106fa577f4e487b7100000000000000000000000000000000000000000000000000000000600052604160045260246000fd5b60405190808252806020026020018201604052801561073357816020015b610720611c61565b8152602001906001900390816107185790505b50905060005b60045481101561092057600d600060018361075491906128b6565b81526020019081526020016000206040518060c00160405290816000820154815260200160018201805461078790612a5b565b80601f01602080910402602001604051908101604052809291908181526020018280546107b390612a5b565b80156108005780601f106107d557610100808354040283529160200191610800565b820191906000526020600020905b8154815290600101906020018083116107e357829003601f168201915b505050505081526020016002820160009054906101000a900473ffffffffffffffffffffffffffffffffffffffff1673ffffffffffffffffffffffffffffffffffffffff1673ffffffffffffffffffffffffffffffffffffffff1681526020016003820160009054906101000a900473ffffffffffffffffffffffffffffffffffffffff1673ffffffffffffffffffffffffffffffffffffffff1673ffffffffffffffffffffffffffffffffffffffff16815260200160048201548152602001600582015481525050828281518110610902577f4e487b7100000000000000000000000000000000000000000000000000000000600052603260045260246000fd5b6020026020010181905250808061091890612abe565b915050610739565b508091505090565b6000600160009054906101000a900473ffffffffffffffffffffffffffffffffffffffff1673ffffffffffffffffffffffffffffffffffffffff166370a08231336040518263ffffffff1660e01b81526004016109859190612482565b60206040518083038186803b15801561099d57600080fd5b505afa1580156109b1573d6000803e3d6000fd5b505050506040513d601f19601f820116820180604052508101906109d59190611f6f565b9050600660040154341015806109f057506006600301548110155b610a2f576040517f08c379a0000000000000000000000000000000000000000000000000000000008152600401610a26906125cc565b60405180910390fd5b6000600d60008481526020019081526020016000209050600660040154341115610bf3576000600660000154606434610a68919061290c565b610a72919061293d565b905060008260020160009054906101000a900473ffffffffffffffffffffffffffffffffffffffff1673ffffffffffffffffffffffffffffffffffffffff168234610abd9190612997565b604051610ac99061246d565b60006040518083038185875af1925050503d8060008114610b06576040519150601f19603f3d011682016040523d82523d6000602084013e610b0b565b606091505b5050905080610b4f576040517f08c379a0000000000000000000000000000000000000000000000000000000008152600401610b46906125ac565b60405180910390fd5b600160009054906101000a900473ffffffffffffffffffffffffffffffffffffffff1673ffffffffffffffffffffffffffffffffffffffff166340c10f19336005546001610b9d919061293d565b6040518363ffffffff1660e01b8152600401610bba92919061249d565b600060405180830381600087803b158015610bd457600080fd5b505af1158015610be8573d6000803e3d6000fd5b505050505050610c91565b600160009054906101000a900473ffffffffffffffffffffffffffffffffffffffff1673ffffffffffffffffffffffffffffffffffffffff16639dc29fac336005546001610c41919061293d565b6040518363ffffffff1660e01b8152600401610c5e92919061249d565b600060405180830381600087803b158015610c7857600080fd5b505af1158015610c8c573d6000803e3d6000fd5b505050505b610ca960018260040154611b5e90919063ffffffff16565b81600401819055507f122617a535d59e7bce5cb66bac4ab17c16f600ae1976fc9cdbfc68ef5c4c3efe83826004015442604051610ce89392919061276e565b60405180910390a1505050565b610cfd611b56565b73ffffffffffffffffffffffffffffffffffffffff16610d1b611449565b73ffffffffffffffffffffffffffffffffffffffff1614610d71576040517f08c379a0000000000000000000000000000000000000000000000000000000008152600401610d689061256c565b60405180910390fd5b610d7b6000611b74565b565b610d85611b56565b73ffffffffffffffffffffffffffffffffffffffff16610da3611449565b73ffffffffffffffffffffffffffffffffffffffff1614610df9576040517f08c379a0000000000000000000000000000000000000000000000000000000008152600401610df09061256c565b60405180910390fd5b8060066002018190555050565b6000825111610e4a576040517f08c379a0000000000000000000000000000000000000000000000000000000008152600401610e419061258c565b60405180910390fd5b600073ffffffffffffffffffffffffffffffffffffffff168173ffffffffffffffffffffffffffffffffffffffff161415610eba576040517f08c379a0000000000000000000000000000000000000000000000000000000008152600401610eb1906125ec565b60405180910390fd5b6000600160009054906101000a900473ffffffffffffffffffffffffffffffffffffffff1673ffffffffffffffffffffffffffffffffffffffff166370a08231336040518263ffffffff1660e01b8152600401610f179190612482565b60206040518083038186803b158015610f2f57600080fd5b505afa158015610f43573d6000803e3d6000fd5b505050506040513d601f19601f82011682018060405250810190610f679190611f6f565b905060066002015434101580610f8257506006600101548110155b610fc1576040517f08c379a0000000000000000000000000000000000000000000000000000000008152600401610fb89061254c565b60405180910390fd5b600660020154341061106f57600160009054906101000a900473ffffffffffffffffffffffffffffffffffffffff1673ffffffffffffffffffffffffffffffffffffffff166340c10f1933600554600561101b919061293d565b6040518363ffffffff1660e01b815260040161103892919061249d565b600060405180830381600087803b15801561105257600080fd5b505af1158015611066573d6000803e3d6000fd5b5050505061110d565b600160009054906101000a900473ffffffffffffffffffffffffffffffffffffffff1673ffffffffffffffffffffffffffffffffffffffff16639dc29fac3360055460056110bd919061293d565b6040518363ffffffff1660e01b81526004016110da92919061249d565b600060405180830381600087803b1580156110f457600080fd5b505af1158015611108573d6000803e3d6000fd5b505050505b6111236001600454611b5e90919063ffffffff16565b6004819055506000600454905060006040518060c001604052808381526020018681526020018573ffffffffffffffffffffffffffffffffffffffff1681526020013373ffffffffffffffffffffffffffffffffffffffff1681526020016000815260200142815250905080600d60008481526020019081526020016000206000820151816000015560208201518160010190805190602001906111c8929190611cc3565b5060408201518160020160006101000a81548173ffffffffffffffffffffffffffffffffffffffff021916908373ffffffffffffffffffffffffffffffffffffffff16021790555060608201518160030160006101000a81548173ffffffffffffffffffffffffffffffffffffffff021916908373ffffffffffffffffffffffffffffffffffffffff1602179055506080820151816004015560a08201518160050155905050600c60003373ffffffffffffffffffffffffffffffffffffffff1673ffffffffffffffffffffffffffffffffffffffff1681526020019081526020016000208290806001815401808255809150506001900390600052602060002001600090919091909150556113276001600b60003373ffffffffffffffffffffffffffffffffffffffff1673ffffffffffffffffffffffffffffffffffffffff16815260200190815260200160002054611b5e90919063ffffffff16565b600b60003373ffffffffffffffffffffffffffffffffffffffff1673ffffffffffffffffffffffffffffffffffffffff16815260200190815260200160002081905550813373ffffffffffffffffffffffffffffffffffffffff167fa7134812d81cb793a7b04fb2ddd9a8d51af3fc4379976582e3c6dae17ec1f40c426040516113b191906126eb565b60405180910390a35050505050565b6113c8611b56565b73ffffffffffffffffffffffffffffffffffffffff166113e6611449565b73ffffffffffffffffffffffffffffffffffffffff161461143c576040517f08c379a00000000000000000000000000000000000000000000000000000000081526004016114339061256c565b60405180910390fd5b8060066003018190555050565b60008060009054906101000a900473ffffffffffffffffffffffffffffffffffffffff16905090565b6000600454905090565b611484611c61565b600d60008381526020019081526020016000206040518060c0016040529081600082015481526020016001820180546114bc90612a5b565b80601f01602080910402602001604051908101604052809291908181526020018280546114e890612a5b565b80156115355780601f1061150a57610100808354040283529160200191611535565b820191906000526020600020905b81548152906001019060200180831161151857829003601f168201915b505050505081526020016002820160009054906101000a900473ffffffffffffffffffffffffffffffffffffffff1673ffffffffffffffffffffffffffffffffffffffff1673ffffffffffffffffffffffffffffffffffffffff1681526020016003820160009054906101000a900473ffffffffffffffffffffffffffffffffffffffff1673ffffffffffffffffffffffffffffffffffffffff1673ffffffffffffffffffffffffffffffffffffffff168152602001600482015481526020016005820154815250509050919050565b61160d611b56565b73ffffffffffffffffffffffffffffffffffffffff1661162b611449565b73ffffffffffffffffffffffffffffffffffffffff1614611681576040517f08c379a00000000000000000000000000000000000000000000000000000000081526004016116789061256c565b60405180910390fd5b8060066001018190555050565b611696611d49565b60066040518060a001604052908160008201548152602001600182015481526020016002820154815260200160038201548152602001600482015481525050905090565b600c60205281600052604060002081815481106116f657600080fd5b90600052602060002001600091509150505481565b611713611b56565b73ffffffffffffffffffffffffffffffffffffffff16611731611449565b73ffffffffffffffffffffffffffffffffffffffff1614611787576040517f08c379a000000000000000000000000000000000000000000000000000000000815260040161177e9061256c565b60405180910390fd5b8060066004018190555050565b600d6020528060005260406000206000915090508060000154908060010180546117bd90612a5b565b80601f01602080910402602001604051908101604052809291908181526020018280546117e990612a5b565b80156118365780601f1061180b57610100808354040283529160200191611836565b820191906000526020600020905b81548152906001019060200180831161181957829003601f168201915b5050505050908060020160009054906101000a900473ffffffffffffffffffffffffffffffffffffffff16908060030160009054906101000a900473ffffffffffffffffffffffffffffffffffffffff16908060040154908060050154905086565b6118a0611b56565b73ffffffffffffffffffffffffffffffffffffffff166118be611449565b73ffffffffffffffffffffffffffffffffffffffff1614611914576040517f08c379a000000000000000000000000000000000000000000000000000000000815260040161190b9061256c565b60405180910390fd5b600073ffffffffffffffffffffffffffffffffffffffff168173ffffffffffffffffffffffffffffffffffffffff161415611984576040517f08c379a000000000000000000000000000000000000000000000000000000000815260040161197b9061252c565b60405180910390fd5b61198d81611b74565b50565b611998611b56565b73ffffffffffffffffffffffffffffffffffffffff166119b6611449565b73ffffffffffffffffffffffffffffffffffffffff1614611a0c576040517f08c379a0000000000000000000000000000000000000000000000000000000008152600401611a039061256c565b60405180910390fd5b60008273ffffffffffffffffffffffffffffffffffffffff1682604051611a329061246d565b60006040518083038185875af1925050503d8060008114611a6f576040519150601f19603f3d011682016040523d82523d6000602084013e611a74565b606091505b5050905080611ab8576040517f08c379a0000000000000000000000000000000000000000000000000000000008152600401611aaf906125ac565b60405180910390fd5b505050565b611b5381604051602401611ad1919061250a565b6040516020818303038152906040527f41304fac000000000000000000000000000000000000000000000000000000007bffffffffffffffffffffffffffffffffffffffffffffffffffffffff19166020820180517bffffffffffffffffffffffffffffffffffffffffffffffffffffffff8381831617835250505050611c38565b50565b600033905090565b60008183611b6c91906128b6565b905092915050565b60008060009054906101000a900473ffffffffffffffffffffffffffffffffffffffff169050816000806101000a81548173ffffffffffffffffffffffffffffffffffffffff021916908373ffffffffffffffffffffffffffffffffffffffff1602179055508173ffffffffffffffffffffffffffffffffffffffff168173ffffffffffffffffffffffffffffffffffffffff167f8be0079c531659141344cd1fd0a4f28419497f9722a3daafe3b4186f6b6457e060405160405180910390a35050565b60008151905060006a636f6e736f6c652e6c6f679050602083016000808483855afa5050505050565b6040518060c001604052806000815260200160608152602001600073ffffffffffffffffffffffffffffffffffffffff168152602001600073ffffffffffffffffffffffffffffffffffffffff16815260200160008152602001600081525090565b828054611ccf90612a5b565b90600052602060002090601f016020900481019282611cf15760008555611d38565b82601f10611d0a57805160ff1916838001178555611d38565b82800160010185558215611d38579182015b82811115611d37578251825591602001919060010190611d1c565b5b509050611d459190611d78565b5090565b6040518060a0016040528060008152602001600081526020016000815260200160008152602001600081525090565b5b80821115611d91576000816000905550600101611d79565b5090565b6000611da8611da3846127ca565b6127a5565b905082815260208101848484011115611dc057600080fd5b611dcb848285612a19565b509392505050565b600081359050611de281612d94565b92915050565b600081359050611df781612dab565b92915050565b600082601f830112611e0e57600080fd5b8135611e1e848260208601611d95565b91505092915050565b600081359050611e3681612dc2565b92915050565b600081519050611e4b81612dc2565b92915050565b600060208284031215611e6357600080fd5b6000611e7184828501611dd3565b91505092915050565b60008060408385031215611e8d57600080fd5b6000611e9b85828601611de8565b9250506020611eac85828601611e27565b9150509250929050565b60008060408385031215611ec957600080fd5b6000611ed785828601611dd3565b9250506020611ee885828601611e27565b9150509250929050565b60008060408385031215611f0557600080fd5b600083013567ffffffffffffffff811115611f1f57600080fd5b611f2b85828601611dfd565b9250506020611f3c85828601611dd3565b9150509250929050565b600060208284031215611f5857600080fd5b6000611f6684828501611e27565b91505092915050565b600060208284031215611f8157600080fd5b6000611f8f84828501611e3c565b91505092915050565b6000611fa4838361233d565b905092915050565b6000611fb8838361244f565b60208301905092915050565b611fcd816129cb565b82525050565b611fdc816129cb565b82525050565b6000611fed8261281b565b611ff78185612856565b935083602082028501612009856127fb565b8060005b8581101561204557848403895281516120268582611f98565b94506120318361283c565b925060208a0199505060018101905061200d565b50829750879550505050505092915050565b600061206282612826565b61206c8185612867565b93506120778361280b565b8060005b838110156120a857815161208f8882611fac565b975061209a83612849565b92505060018101905061207b565b5085935050505092915050565b60006120c18385612878565b93506120ce838584612a19565b6120d783612bc3565b840190509392505050565b60006120ed82612831565b6120f78185612894565b9350612107818560208601612a28565b61211081612bc3565b840191505092915050565b600061212682612831565b61213081856128a5565b9350612140818560208601612a28565b61214981612bc3565b840191505092915050565b60006121616026836128a5565b915061216c82612bd4565b604082019050919050565b6000612184601d836128a5565b915061218f82612c23565b602082019050919050565b60006121a76020836128a5565b91506121b282612c4c565b602082019050919050565b60006121ca601c836128a5565b91506121d582612c75565b602082019050919050565b60006121ed6012836128a5565b91506121f882612c9e565b602082019050919050565b6000612210601b836128a5565b915061221b82612cc7565b602082019050919050565b60006122336021836128a5565b915061223e82612cf0565b604082019050919050565b60006122566008836128a5565b915061226182612d3f565b602082019050919050565b6000612279600083612878565b915061228482612d68565b600082019050919050565b600061229c600083612889565b91506122a782612d68565b600082019050919050565b60006122bf6007836128a5565b91506122ca82612d6b565b602082019050919050565b60a0820160008201516122eb600085018261244f565b5060208201516122fe602085018261244f565b506040820151612311604085018261244f565b506060820151612324606085018261244f565b506080820151612337608085018261244f565b50505050565b600060c083016000830151612355600086018261244f565b506020830151848203602086015261236d82826120e2565b91505060408301516123826040860182611fc4565b5060608301516123956060860182611fc4565b5060808301516123a8608086018261244f565b5060a08301516123bb60a086018261244f565b508091505092915050565b600060c0830160008301516123de600086018261244f565b50602083015184820360208601526123f682826120e2565b915050604083015161240b6040860182611fc4565b50606083015161241e6060860182611fc4565b506080830151612431608086018261244f565b5060a083015161244460a086018261244f565b508091505092915050565b61245881612a0f565b82525050565b61246781612a0f565b82525050565b60006124788261228f565b9150819050919050565b60006020820190506124976000830184611fd3565b92915050565b60006040820190506124b26000830185611fd3565b6124bf602083018461245e565b9392505050565b600060208201905081810360008301526124e08184611fe2565b905092915050565b600060208201905081810360008301526125028184612057565b905092915050565b60006020820190508181036000830152612524818461211b565b905092915050565b6000602082019050818103600083015261254581612154565b9050919050565b6000602082019050818103600083015261256581612177565b9050919050565b600060208201905081810360008301526125858161219a565b9050919050565b600060208201905081810360008301526125a5816121bd565b9050919050565b600060208201905081810360008301526125c5816121e0565b9050919050565b600060208201905081810360008301526125e581612203565b9050919050565b6000602082019050818103600083015261260581612226565b9050919050565b6000608082019050818103600083015261262581612249565b90506126346020830187611fd3565b612641604083018661245e565b81810360608301526126548184866120b5565b905095945050505050565b60006080820190508181036000830152612678816122b2565b90506126876020830185611fd3565b612694604083018461245e565b81810360608301526126a58161226c565b90509392505050565b600060a0820190506126c360008301846122d5565b92915050565b600060208201905081810360008301526126e381846123c6565b905092915050565b6000602082019050612700600083018461245e565b92915050565b600060c08201905061271b600083018961245e565b818103602083015261272d818861211b565b905061273c6040830187611fd3565b6127496060830186611fd3565b612756608083018561245e565b61276360a083018461245e565b979650505050505050565b6000606082019050612783600083018661245e565b612790602083018561245e565b61279d604083018461245e565b949350505050565b60006127af6127c0565b90506127bb8282612a8d565b919050565b6000604051905090565b600067ffffffffffffffff8211156127e5576127e4612b94565b5b6127ee82612bc3565b9050602081019050919050565b6000819050602082019050919050565b6000819050602082019050919050565b600081519050919050565b600081519050919050565b600081519050919050565b6000602082019050919050565b6000602082019050919050565b600082825260208201905092915050565b600082825260208201905092915050565b600082825260208201905092915050565b600081905092915050565b600082825260208201905092915050565b600082825260208201905092915050565b60006128c182612a0f565b91506128cc83612a0f565b9250827fffffffffffffffffffffffffffffffffffffffffffffffffffffffffffffffff0382111561290157612900612b07565b5b828201905092915050565b600061291782612a0f565b915061292283612a0f565b92508261293257612931612b36565b5b828204905092915050565b600061294882612a0f565b915061295383612a0f565b9250817fffffffffffffffffffffffffffffffffffffffffffffffffffffffffffffffff048311821515161561298c5761298b612b07565b5b828202905092915050565b60006129a282612a0f565b91506129ad83612a0f565b9250828210156129c0576129bf612b07565b5b828203905092915050565b60006129d6826129ef565b9050919050565b60006129e8826129ef565b9050919050565b600073ffffffffffffffffffffffffffffffffffffffff82169050919050565b6000819050919050565b82818337600083830152505050565b60005b83811015612a46578082015181840152602081019050612a2b565b83811115612a55576000848401525b50505050565b60006002820490506001821680612a7357607f821691505b60208210811415612a8757612a86612b65565b5b50919050565b612a9682612bc3565b810181811067ffffffffffffffff82111715612ab557612ab4612b94565b5b80604052505050565b6000612ac982612a0f565b91507fffffffffffffffffffffffffffffffffffffffffffffffffffffffffffffffff821415612afc57612afb612b07565b5b600182019050919050565b7f4e487b7100000000000000000000000000000000000000000000000000000000600052601160045260246000fd5b7f4e487b7100000000000000000000000000000000000000000000000000000000600052601260045260246000fd5b7f4e487b7100000000000000000000000000000000000000000000000000000000600052602260045260246000fd5b7f4e487b7100000000000000000000000000000000000000000000000000000000600052604160045260246000fd5b6000601f19601f8301169050919050565b7f4f776e61626c653a206e6577206f776e657220697320746865207a65726f206160008201527f6464726573730000000000000000000000000000000000000000000000000000602082015250565b7f5477656574566f7465723a206d73672e76616c75655f544f4f5f4c4f57000000600082015250565b7f4f776e61626c653a2063616c6c6572206973206e6f7420746865206f776e6572600082015250565b7f5477656574566f7465723a20747765657455726c5f494e56414c494400000000600082015250565b7f4661696c656420746f2073656e64204554480000000000000000000000000000600082015250565b7f5477656574566f7465723a206c696b654665655f544f4f5f4c4f570000000000600082015250565b7f5477656574566f7465723a2066656552656365697665725f5a45524f5f41444460008201527f5200000000000000000000000000000000000000000000000000000000000000602082015250565b7f66616c6c6261636b000000000000000000000000000000000000000000000000600082015250565b50565b7f7265636569766500000000000000000000000000000000000000000000000000600082015250565b612d9d816129cb565b8114612da857600080fd5b50565b612db4816129dd565b8114612dbf57600080fd5b50565b612dcb81612a0f565b8114612dd657600080fd5b5056fea264697066735822122046731fffec7e234b3b18cc2b8ebb40e05de6fc6a26cbdef687bb482f249bff3e64736f6c63430008040033436f6e7374727563746f723a20547765657420566f746572206465706c6f796564",
	"linkReferences": {},
	"deployedLinkReferences": {}
}