{
	"_format": "hh-sol-artifact-1",
	"contractName": "TweetVoter",
	"sourceName": "contracts/TweetVoter.sol",
	"abi": [
		{
			"inputs": [
				{
					"internalType": "address",
					"name": "_tvTokenContract",
					"type": "address"
				}
			],
			"stateMutability": "nonpayable",
			"type": "constructor"
		},
		{
			"anonymous": false,
			"inputs": [
				{
					"indexed": false,
					"internalType": "uint256",
					"name": "tweetId",
					"type": "uint256"
				},
				{
					"indexed": false,
					"internalType": "uint256",
					"name": "likes",
					"type": "uint256"
				},
				{
					"indexed": false,
					"internalType": "uint256",
					"name": "timestamp",
					"type": "uint256"
				}
			],
			"name": "LikedTweet",
			"type": "event"
		},
		{
			"anonymous": false,
			"inputs": [
				{
					"indexed": false,
					"internalType": "string",
					"name": "func",
					"type": "string"
				},
				{
					"indexed": false,
					"internalType": "address",
					"name": "sender",
					"type": "address"
				},
				{
					"indexed": false,
					"internalType": "uint256",
					"name": "value",
					"type": "uint256"
				},
				{
					"indexed": false,
					"internalType": "bytes",
					"name": "data",
					"type": "bytes"
				}
			],
			"name": "Log",
			"type": "event"
		},
		{
			"anonymous": false,
			"inputs": [
				{
					"indexed": true,
					"internalType": "address",
					"name": "previousOwner",
					"type": "address"
				},
				{
					"indexed": true,
					"internalType": "address",
					"name": "newOwner",
					"type": "address"
				}
			],
			"name": "OwnershipTransferred",
			"type": "event"
		},
		{
			"anonymous": false,
			"inputs": [
				{
					"indexed": true,
					"internalType": "address",
					"name": "user",
					"type": "address"
				},
				{
					"indexed": true,
					"internalType": "uint256",
					"name": "tweetId",
					"type": "uint256"
				},
				{
					"indexed": false,
					"internalType": "uint256",
					"name": "timestamp",
					"type": "uint256"
				}
			],
			"name": "SubmitTweet",
			"type": "event"
		},
		{
			"stateMutability": "payable",
			"type": "fallback"
		},
		{
			"inputs": [
				{
					"internalType": "address",
					"name": "",
					"type": "address"
				},
				{
					"internalType": "uint256",
					"name": "",
					"type": "uint256"
				}
			],
			"name": "accountToTweetIds",
			"outputs": [
				{
					"internalType": "uint256",
					"name": "",
					"type": "uint256"
				}
			],
			"stateMutability": "view",
			"type": "function"
		},
		{
			"inputs": [
				{
					"internalType": "address",
					"name": "",
					"type": "address"
				}
			],
			"name": "accountTweetsAmount",
			"outputs": [
				{
					"internalType": "uint256",
					"name": "",
					"type": "uint256"
				}
			],
			"stateMutability": "view",
			"type": "function"
		},
		{
			"inputs": [
				{
					"internalType": "address",
					"name": "account",
					"type": "address"
				}
			],
			"name": "getAccountTweetsAmount",
			"outputs": [
				{
					"internalType": "uint256",
					"name": "",
					"type": "uint256"
				}
			],
			"stateMutability": "view",
			"type": "function"
		},
		{
			"inputs": [
				{
					"internalType": "address",
					"name": "account",
					"type": "address"
				}
			],
			"name": "getAllTweetIdsByAccount",
			"outputs": [
				{
					"internalType": "uint256[]",
					"name": "",
					"type": "uint256[]"
				}
			],
			"stateMutability": "view",
			"type": "function"
		},
		{
			"inputs": [],
			"name": "getAllTweets",
			"outputs": [
				{
					"components": [
						{
							"internalType": "uint256",
							"name": "tweetId",
							"type": "uint256"
						},
						{
							"internalType": "string",
							"name": "tweetUrl",
							"type": "string"
						},
						{
							"internalType": "address",
							"name": "feeReceiver",
							"type": "address"
						},
						{
							"internalType": "address",
							"name": "tweetOwner",
							"type": "address"
						},
						{
							"internalType": "uint256",
							"name": "likes",
							"type": "uint256"
						},
						{
							"internalType": "uint256",
							"name": "timestamp",
							"type": "uint256"
						}
					],
					"internalType": "struct TweetVoter.Tweet[]",
					"name": "",
					"type": "tuple[]"
				}
			],
			"stateMutability": "view",
			"type": "function"
		},
		{
			"inputs": [],
			"name": "getFees",
			"outputs": [
				{
					"components": [
						{
							"internalType": "uint256",
							"name": "platformFee",
							"type": "uint256"
						},
						{
							"internalType": "uint256",
							"name": "tweetTokenFee",
							"type": "uint256"
						},
						{
							"internalType": "uint256",
							"name": "tweetEthFee",
							"type": "uint256"
						},
						{
							"internalType": "uint256",
							"name": "likeTokenFee",
							"type": "uint256"
						},
						{
							"internalType": "uint256",
							"name": "likeEthFee",
							"type": "uint256"
						}
					],
					"internalType": "struct TweetVoter.PlatformFees",
					"name": "",
					"type": "tuple"
				}
			],
			"stateMutability": "view",
			"type": "function"
		},
		{
			"inputs": [],
			"name": "getTotalTweets",
			"outputs": [
				{
					"internalType": "uint256",
					"name": "",
					"type": "uint256"
				}
			],
			"stateMutability": "view",
			"type": "function"
		},
		{
			"inputs": [
				{
					"internalType": "uint256",
					"name": "tweetId",
					"type": "uint256"
				}
			],
			"name": "getTweetById",
			"outputs": [
				{
					"components": [
						{
							"internalType": "uint256",
							"name": "tweetId",
							"type": "uint256"
						},
						{
							"internalType": "string",
							"name": "tweetUrl",
							"type": "string"
						},
						{
							"internalType": "address",
							"name": "feeReceiver",
							"type": "address"
						},
						{
							"internalType": "address",
							"name": "tweetOwner",
							"type": "address"
						},
						{
							"internalType": "uint256",
							"name": "likes",
							"type": "uint256"
						},
						{
							"internalType": "uint256",
							"name": "timestamp",
							"type": "uint256"
						}
					],
					"internalType": "struct TweetVoter.Tweet",
					"name": "",
					"type": "tuple"
				}
			],
			"stateMutability": "view",
			"type": "function"
		},
		{
			"inputs": [
				{
					"internalType": "uint256",
					"name": "tweetId",
					"type": "uint256"
				}
			],
			"name": "likeTweet",
			"outputs": [],
			"stateMutability": "payable",
			"type": "function"
		},
		{
			"inputs": [],
			"name": "owner",
			"outputs": [
				{
					"internalType": "address",
					"name": "",
					"type": "address"
				}
			],
			"stateMutability": "view",
			"type": "function"
		},
		{
			"inputs": [],
			"name": "renounceOwnership",
			"outputs": [],
			"stateMutability": "nonpayable",
			"type": "function"
		},
		{
			"inputs": [
				{
					"internalType": "uint256",
					"name": "_likeEthFee",
					"type": "uint256"
				}
			],
			"name": "setLikeEthFee",
			"outputs": [],
			"stateMutability": "nonpayable",
			"type": "function"
		},
		{
			"inputs": [
				{
					"internalType": "uint256",
					"name": "_likeTokenFee",
					"type": "uint256"
				}
			],
			"name": "setLikeTokenFee",
			"outputs": [],
			"stateMutability": "nonpayable",
			"type": "function"
		},
		{
			"inputs": [
				{
					"internalType": "uint256",
					"name": "_platformFee",
					"type": "uint256"
				}
			],
			"name": "setPlatformFee",
			"outputs": [],
			"stateMutability": "nonpayable",
			"type": "function"
		},
		{
			"inputs": [
				{
					"internalType": "uint256",
					"name": "_tweetEthFee",
					"type": "uint256"
				}
			],
			"name": "setTweetEthFee",
			"outputs": [],
			"stateMutability": "nonpayable",
			"type": "function"
		},
		{
			"inputs": [
				{
					"internalType": "uint256",
					"name": "_tweetTokenFee",
					"type": "uint256"
				}
			],
			"name": "setTweetTokenFee",
			"outputs": [],
			"stateMutability": "nonpayable",
			"type": "function"
		},
		{
			"inputs": [
				{
					"internalType": "string",
					"name": "_tweetUrl",
					"type": "string"
				},
				{
					"internalType": "address",
					"name": "_feeReceiver",
					"type": "address"
				}
			],
			"name": "submitTweet",
			"outputs": [],
			"stateMutability": "payable",
			"type": "function"
		},
		{
			"inputs": [
				{
					"internalType": "address",
					"name": "newOwner",
					"type": "address"
				}
			],
			"name": "transferOwnership",
			"outputs": [],
			"stateMutability": "nonpayable",
			"type": "function"
		},
		{
			"inputs": [
				{
					"internalType": "uint256",
					"name": "",
					"type": "uint256"
				}
			],
			"name": "tweetIdToTweet",
			"outputs": [
				{
					"internalType": "uint256",
					"name": "tweetId",
					"type": "uint256"
				},
				{
					"internalType": "string",
					"name": "tweetUrl",
					"type": "string"
				},
				{
					"internalType": "address",
					"name": "feeReceiver",
					"type": "address"
				},
				{
					"internalType": "address",
					"name": "tweetOwner",
					"type": "address"
				},
				{
					"internalType": "uint256",
					"name": "likes",
					"type": "uint256"
				},
				{
					"internalType": "uint256",
					"name": "timestamp",
					"type": "uint256"
				}
			],
			"stateMutability": "view",
			"type": "function"
		},
		{
			"inputs": [
				{
					"internalType": "address payable",
					"name": "to",
					"type": "address"
				},
				{
					"internalType": "uint256",
					"name": "amount",
					"type": "uint256"
				}
			],
			"name": "withdraw",
			"outputs": [],
			"stateMutability": "nonpayable",
			"type": "function"
		},
		{
			"stateMutability": "payable",
			"type": "receive"
		}
	],
	"bytecode": "0x608060405260006004556040518060a00160405280600581526020016005815260200166024f2beb1aa00081526020016001815260200165886c98b760008152506005600082015181600001556020820151816001015560408201518160020155606082015181600301556080820151816004015550503480156200008357600080fd5b50604051620032a7380380620032a78339818101604052810190620000a99190620002ef565b620000c9620000bd6200014060201b60201c565b6200014860201b60201c565b620000f860405180606001604052806021815260200162003286602191396200020c60201b62001a881760201c565b80600160006101000a81548173ffffffffffffffffffffffffffffffffffffffff021916908373ffffffffffffffffffffffffffffffffffffffff1602179055505062000431565b600033905090565b60008060009054906101000a900473ffffffffffffffffffffffffffffffffffffffff169050816000806101000a81548173ffffffffffffffffffffffffffffffffffffffff021916908373ffffffffffffffffffffffffffffffffffffffff1602179055508173ffffffffffffffffffffffffffffffffffffffff168173ffffffffffffffffffffffffffffffffffffffff167f8be0079c531659141344cd1fd0a4f28419497f9722a3daafe3b4186f6b6457e060405160405180910390a35050565b620002ac816040516024016200022391906200035c565b6040516020818303038152906040527f41304fac000000000000000000000000000000000000000000000000000000007bffffffffffffffffffffffffffffffffffffffffffffffffffffffff19166020820180517bffffffffffffffffffffffffffffffffffffffffffffffffffffffff8381831617835250505050620002af60201b60201c565b50565b60008151905060006a636f6e736f6c652e6c6f679050602083016000808483855afa5050505050565b600081519050620002e98162000417565b92915050565b6000602082840312156200030257600080fd5b60006200031284828501620002d8565b91505092915050565b6000620003288262000380565b6200033481856200038b565b935062000346818560208601620003d0565b620003518162000406565b840191505092915050565b600060208201905081810360008301526200037881846200031b565b905092915050565b600081519050919050565b600082825260208201905092915050565b6000620003a982620003b0565b9050919050565b600073ffffffffffffffffffffffffffffffffffffffff82169050919050565b60005b83811015620003f0578082015181840152602081019050620003d3565b8381111562000400576000848401525b50505050565b6000601f19601f8301169050919050565b62000422816200039c565b81146200042e57600080fd5b50565b612e4580620004416000396000f3fe6080604052600436106101235760003560e01c80638da5cb5b116100a0578063e04d795e11610064578063e04d795e14610436578063ef8f7f7514610473578063f2fde38b146104b5578063f3fef3a3146104de578063fa0b70821461050757610163565b80638da5cb5b1461034f57806393f11c271461037a578063bcbf8506146103a5578063cf879763146103e2578063db8d55f11461040b57610163565b806353256135116100e757806353256135146102ac5780635ffc6ceb146102d7578063715018a6146102f357806384d20da91461030a578063870427b31461032657610163565b80630bf692fc146101a357806312e8e2c3146101e057806314e9c07b146102095780632a1d65da1461024657806335b4908b1461026f57610163565b36610163577ff7f75251dee7d7fc22deac3247729ebe7c86541f35930bf10c2a4207479a3b6c3334604051610159929190612671565b60405180910390a1005b7ff7f75251dee7d7fc22deac3247729ebe7c86541f35930bf10c2a4207479a3b6c3334600036604051610199949392919061261e565b60405180910390a1005b3480156101af57600080fd5b506101ca60048036038101906101c59190611e1c565b610530565b6040516101d791906124fa565b60405180910390f35b3480156101ec57600080fd5b5061020760048036038101906102029190611f11565b6105c7565b005b34801561021557600080fd5b50610230600480360381019061022b9190611e1c565b610650565b60405161023d91906126fd565b60405180910390f35b34801561025257600080fd5b5061026d60048036038101906102689190611f11565b61069c565b005b34801561027b57600080fd5b5061029660048036038101906102919190611e1c565b610725565b6040516102a391906126fd565b60405180910390f35b3480156102b857600080fd5b506102c161073d565b6040516102ce91906124d8565b60405180910390f35b6102f160048036038101906102ec9190611f11565b6109b1565b005b3480156102ff57600080fd5b50610308610d63565b005b610324600480360381019061031f9190611ebd565b610deb565b005b34801561033257600080fd5b5061034d60048036038101906103489190611f11565b61138b565b005b34801561035b57600080fd5b50610364611414565b604051610371919061246b565b60405180910390f35b34801561038657600080fd5b5061038f61143d565b60405161039c91906126fd565b60405180910390f35b3480156103b157600080fd5b506103cc60048036038101906103c79190611f11565b611447565b6040516103d991906126db565b60405180910390f35b3480156103ee57600080fd5b5061040960048036038101906104049190611f11565b6115d0565b005b34801561041757600080fd5b50610420611659565b60405161042d91906126c0565b60405180910390f35b34801561044257600080fd5b5061045d60048036038101906104589190611e81565b6116a5565b60405161046a91906126fd565b60405180910390f35b34801561047f57600080fd5b5061049a60048036038101906104959190611f11565b6116d6565b6040516104ac96959493929190612718565b60405180910390f35b3480156104c157600080fd5b506104dc60048036038101906104d79190611e1c565b6117da565b005b3480156104ea57600080fd5b5061050560048036038101906105009190611e45565b6118d2565b005b34801561051357600080fd5b5061052e60048036038101906105299190611f11565b6119ff565b005b6060600b60008373ffffffffffffffffffffffffffffffffffffffff1673ffffffffffffffffffffffffffffffffffffffff1681526020019081526020016000208054806020026020016040519081016040528092919081815260200182805480156105bb57602002820191906000526020600020905b8154815260200190600101908083116105a7575b50505050509050919050565b6105cf611b21565b73ffffffffffffffffffffffffffffffffffffffff166105ed611414565b73ffffffffffffffffffffffffffffffffffffffff1614610643576040517f08c379a000000000000000000000000000000000000000000000000000000000815260040161063a9061257e565b60405180910390fd5b8060056000018190555050565b6000600b60008373ffffffffffffffffffffffffffffffffffffffff1673ffffffffffffffffffffffffffffffffffffffff168152602001908152602001600020805490509050919050565b6106a4611b21565b73ffffffffffffffffffffffffffffffffffffffff166106c2611414565b73ffffffffffffffffffffffffffffffffffffffff1614610718576040517f08c379a000000000000000000000000000000000000000000000000000000000815260040161070f9061257e565b60405180910390fd5b8060056004018190555050565b600a6020528060005260406000206000915090505481565b6060600060045467ffffffffffffffff811115610783577f4e487b7100000000000000000000000000000000000000000000000000000000600052604160045260246000fd5b6040519080825280602002602001820160405280156107bc57816020015b6107a9611c2c565b8152602001906001900390816107a15790505b50905060005b6004548110156109a957600c60006001836107dd91906128c8565b81526020019081526020016000206040518060c00160405290816000820154815260200160018201805461081090612a91565b80601f016020809104026020016040519081016040528092919081815260200182805461083c90612a91565b80156108895780601f1061085e57610100808354040283529160200191610889565b820191906000526020600020905b81548152906001019060200180831161086c57829003601f168201915b505050505081526020016002820160009054906101000a900473ffffffffffffffffffffffffffffffffffffffff1673ffffffffffffffffffffffffffffffffffffffff1673ffffffffffffffffffffffffffffffffffffffff1681526020016003820160009054906101000a900473ffffffffffffffffffffffffffffffffffffffff1673ffffffffffffffffffffffffffffffffffffffff1673ffffffffffffffffffffffffffffffffffffffff1681526020016004820154815260200160058201548152505082828151811061098b577f4e487b7100000000000000000000000000000000000000000000000000000000600052603260045260246000fd5b602002602001018190525080806109a190612af4565b9150506107c2565b508091505090565b6000600160009054906101000a900473ffffffffffffffffffffffffffffffffffffffff1673ffffffffffffffffffffffffffffffffffffffff166370a08231336040518263ffffffff1660e01b8152600401610a0e919061246b565b60206040518083038186803b158015610a2657600080fd5b505afa158015610a3a573d6000803e3d6000fd5b505050506040513d601f19601f82011682018060405250810190610a5e9190611f3a565b9050600560040154341180610a7857506005600301548110155b610ab7576040517f08c379a0000000000000000000000000000000000000000000000000000000008152600401610aae906125de565b60405180910390fd5b6000600c60008481526020019081526020016000209050600560040154341115610c6e576000600560000154606434610af0919061291e565b610afa919061294f565b905060008260020160009054906101000a900473ffffffffffffffffffffffffffffffffffffffff1673ffffffffffffffffffffffffffffffffffffffff168234610b4591906129a9565b604051610b5190612456565b60006040518083038185875af1925050503d8060008114610b8e576040519150601f19603f3d011682016040523d82523d6000602084013e610b93565b606091505b5050905080610bd7576040517f08c379a0000000000000000000000000000000000000000000000000000000008152600401610bce906125be565b60405180910390fd5b600160009054906101000a900473ffffffffffffffffffffffffffffffffffffffff1673ffffffffffffffffffffffffffffffffffffffff166340c10f193360016040518363ffffffff1660e01b8152600401610c35929190612486565b600060405180830381600087803b158015610c4f57600080fd5b505af1158015610c63573d6000803e3d6000fd5b505050505050610cff565b600160009054906101000a900473ffffffffffffffffffffffffffffffffffffffff1673ffffffffffffffffffffffffffffffffffffffff16639dc29fac3360016040518363ffffffff1660e01b8152600401610ccc929190612486565b600060405180830381600087803b158015610ce657600080fd5b505af1158015610cfa573d6000803e3d6000fd5b505050505b610d1760018260040154611b2990919063ffffffff16565b81600401819055507f122617a535d59e7bce5cb66bac4ab17c16f600ae1976fc9cdbfc68ef5c4c3efe83826004015442604051610d5693929190612780565b60405180910390a1505050565b610d6b611b21565b73ffffffffffffffffffffffffffffffffffffffff16610d89611414565b73ffffffffffffffffffffffffffffffffffffffff1614610ddf576040517f08c379a0000000000000000000000000000000000000000000000000000000008152600401610dd69061257e565b60405180910390fd5b610de96000611b3f565b565b6000825111610e2f576040517f08c379a0000000000000000000000000000000000000000000000000000000008152600401610e269061259e565b60405180910390fd5b600073ffffffffffffffffffffffffffffffffffffffff168173ffffffffffffffffffffffffffffffffffffffff161415610e9f576040517f08c379a0000000000000000000000000000000000000000000000000000000008152600401610e96906125fe565b60405180910390fd5b6000600160009054906101000a900473ffffffffffffffffffffffffffffffffffffffff1673ffffffffffffffffffffffffffffffffffffffff166370a08231336040518263ffffffff1660e01b8152600401610efc919061246b565b60206040518083038186803b158015610f1457600080fd5b505afa158015610f28573d6000803e3d6000fd5b505050506040513d601f19601f82011682018060405250810190610f4c9190611f3a565b905060056002015434101580610f6757506005600101548110155b610fa6576040517f08c379a0000000000000000000000000000000000000000000000000000000008152600401610f9d9061255e565b60405180910390fd5b600560020154341061104757600160009054906101000a900473ffffffffffffffffffffffffffffffffffffffff1673ffffffffffffffffffffffffffffffffffffffff166340c10f193360056040518363ffffffff1660e01b81526004016110109291906124af565b600060405180830381600087803b15801561102a57600080fd5b505af115801561103e573d6000803e3d6000fd5b505050506110d8565b600160009054906101000a900473ffffffffffffffffffffffffffffffffffffffff1673ffffffffffffffffffffffffffffffffffffffff16639dc29fac3360056040518363ffffffff1660e01b81526004016110a59291906124af565b600060405180830381600087803b1580156110bf57600080fd5b505af11580156110d3573d6000803e3d6000fd5b505050505b6110ee6001600454611b2990919063ffffffff16565b6004819055506000600454905060006040518060c001604052808381526020018681526020018573ffffffffffffffffffffffffffffffffffffffff1681526020013373ffffffffffffffffffffffffffffffffffffffff1681526020016000815260200142815250905080600c6000848152602001908152602001600020600082015181600001556020820151816001019080519060200190611193929190611c8e565b5060408201518160020160006101000a81548173ffffffffffffffffffffffffffffffffffffffff021916908373ffffffffffffffffffffffffffffffffffffffff16021790555060608201518160030160006101000a81548173ffffffffffffffffffffffffffffffffffffffff021916908373ffffffffffffffffffffffffffffffffffffffff1602179055506080820151816004015560a08201518160050155905050600b60003373ffffffffffffffffffffffffffffffffffffffff1673ffffffffffffffffffffffffffffffffffffffff1681526020019081526020016000208290806001815401808255809150506001900390600052602060002001600090919091909150556112f26001600a60003373ffffffffffffffffffffffffffffffffffffffff1673ffffffffffffffffffffffffffffffffffffffff16815260200190815260200160002054611b2990919063ffffffff16565b600a60003373ffffffffffffffffffffffffffffffffffffffff1673ffffffffffffffffffffffffffffffffffffffff16815260200190815260200160002081905550813373ffffffffffffffffffffffffffffffffffffffff167fa7134812d81cb793a7b04fb2ddd9a8d51af3fc4379976582e3c6dae17ec1f40c4260405161137c91906126fd565b60405180910390a35050505050565b611393611b21565b73ffffffffffffffffffffffffffffffffffffffff166113b1611414565b73ffffffffffffffffffffffffffffffffffffffff1614611407576040517f08c379a00000000000000000000000000000000000000000000000000000000081526004016113fe9061257e565b60405180910390fd5b8060056003018190555050565b60008060009054906101000a900473ffffffffffffffffffffffffffffffffffffffff16905090565b6000600454905090565b61144f611c2c565b600c60008381526020019081526020016000206040518060c00160405290816000820154815260200160018201805461148790612a91565b80601f01602080910402602001604051908101604052809291908181526020018280546114b390612a91565b80156115005780601f106114d557610100808354040283529160200191611500565b820191906000526020600020905b8154815290600101906020018083116114e357829003601f168201915b505050505081526020016002820160009054906101000a900473ffffffffffffffffffffffffffffffffffffffff1673ffffffffffffffffffffffffffffffffffffffff1673ffffffffffffffffffffffffffffffffffffffff1681526020016003820160009054906101000a900473ffffffffffffffffffffffffffffffffffffffff1673ffffffffffffffffffffffffffffffffffffffff1673ffffffffffffffffffffffffffffffffffffffff168152602001600482015481526020016005820154815250509050919050565b6115d8611b21565b73ffffffffffffffffffffffffffffffffffffffff166115f6611414565b73ffffffffffffffffffffffffffffffffffffffff161461164c576040517f08c379a00000000000000000000000000000000000000000000000000000000081526004016116439061257e565b60405180910390fd5b8060056001018190555050565b611661611d14565b60056040518060a001604052908160008201548152602001600182015481526020016002820154815260200160038201548152602001600482015481525050905090565b600b60205281600052604060002081815481106116c157600080fd5b90600052602060002001600091509150505481565b600c6020528060005260406000206000915090508060000154908060010180546116ff90612a91565b80601f016020809104026020016040519081016040528092919081815260200182805461172b90612a91565b80156117785780601f1061174d57610100808354040283529160200191611778565b820191906000526020600020905b81548152906001019060200180831161175b57829003601f168201915b5050505050908060020160009054906101000a900473ffffffffffffffffffffffffffffffffffffffff16908060030160009054906101000a900473ffffffffffffffffffffffffffffffffffffffff16908060040154908060050154905086565b6117e2611b21565b73ffffffffffffffffffffffffffffffffffffffff16611800611414565b73ffffffffffffffffffffffffffffffffffffffff1614611856576040517f08c379a000000000000000000000000000000000000000000000000000000000815260040161184d9061257e565b60405180910390fd5b600073ffffffffffffffffffffffffffffffffffffffff168173ffffffffffffffffffffffffffffffffffffffff1614156118c6576040517f08c379a00000000000000000000000000000000000000000000000000000000081526004016118bd9061253e565b60405180910390fd5b6118cf81611b3f565b50565b6118da611b21565b73ffffffffffffffffffffffffffffffffffffffff166118f8611414565b73ffffffffffffffffffffffffffffffffffffffff161461194e576040517f08c379a00000000000000000000000000000000000000000000000000000000081526004016119459061257e565b60405180910390fd5b60008273ffffffffffffffffffffffffffffffffffffffff168260405161197490612456565b60006040518083038185875af1925050503d80600081146119b1576040519150601f19603f3d011682016040523d82523d6000602084013e6119b6565b606091505b50509050806119fa576040517f08c379a00000000000000000000000000000000000000000000000000000000081526004016119f1906125be565b60405180910390fd5b505050565b611a07611b21565b73ffffffffffffffffffffffffffffffffffffffff16611a25611414565b73ffffffffffffffffffffffffffffffffffffffff1614611a7b576040517f08c379a0000000000000000000000000000000000000000000000000000000008152600401611a729061257e565b60405180910390fd5b8060056002018190555050565b611b1e81604051602401611a9c919061251c565b6040516020818303038152906040527f41304fac000000000000000000000000000000000000000000000000000000007bffffffffffffffffffffffffffffffffffffffffffffffffffffffff19166020820180517bffffffffffffffffffffffffffffffffffffffffffffffffffffffff8381831617835250505050611c03565b50565b600033905090565b60008183611b3791906128c8565b905092915050565b60008060009054906101000a900473ffffffffffffffffffffffffffffffffffffffff169050816000806101000a81548173ffffffffffffffffffffffffffffffffffffffff021916908373ffffffffffffffffffffffffffffffffffffffff1602179055508173ffffffffffffffffffffffffffffffffffffffff168173ffffffffffffffffffffffffffffffffffffffff167f8be0079c531659141344cd1fd0a4f28419497f9722a3daafe3b4186f6b6457e060405160405180910390a35050565b60008151905060006a636f6e736f6c652e6c6f679050602083016000808483855afa5050505050565b6040518060c001604052806000815260200160608152602001600073ffffffffffffffffffffffffffffffffffffffff168152602001600073ffffffffffffffffffffffffffffffffffffffff16815260200160008152602001600081525090565b828054611c9a90612a91565b90600052602060002090601f016020900481019282611cbc5760008555611d03565b82601f10611cd557805160ff1916838001178555611d03565b82800160010185558215611d03579182015b82811115611d02578251825591602001919060010190611ce7565b5b509050611d109190611d43565b5090565b6040518060a0016040528060008152602001600081526020016000815260200160008152602001600081525090565b5b80821115611d5c576000816000905550600101611d44565b5090565b6000611d73611d6e846127dc565b6127b7565b905082815260208101848484011115611d8b57600080fd5b611d96848285612a4f565b509392505050565b600081359050611dad81612dca565b92915050565b600081359050611dc281612de1565b92915050565b600082601f830112611dd957600080fd5b8135611de9848260208601611d60565b91505092915050565b600081359050611e0181612df8565b92915050565b600081519050611e1681612df8565b92915050565b600060208284031215611e2e57600080fd5b6000611e3c84828501611d9e565b91505092915050565b60008060408385031215611e5857600080fd5b6000611e6685828601611db3565b9250506020611e7785828601611df2565b9150509250929050565b60008060408385031215611e9457600080fd5b6000611ea285828601611d9e565b9250506020611eb385828601611df2565b9150509250929050565b60008060408385031215611ed057600080fd5b600083013567ffffffffffffffff811115611eea57600080fd5b611ef685828601611dc8565b9250506020611f0785828601611d9e565b9150509250929050565b600060208284031215611f2357600080fd5b6000611f3184828501611df2565b91505092915050565b600060208284031215611f4c57600080fd5b6000611f5a84828501611e07565b91505092915050565b6000611f6f8383612326565b905092915050565b6000611f838383612438565b60208301905092915050565b611f98816129dd565b82525050565b611fa7816129dd565b82525050565b6000611fb88261282d565b611fc28185612868565b935083602082028501611fd48561280d565b8060005b858110156120105784840389528151611ff18582611f63565b9450611ffc8361284e565b925060208a01995050600181019050611fd8565b50829750879550505050505092915050565b600061202d82612838565b6120378185612879565b93506120428361281d565b8060005b8381101561207357815161205a8882611f77565b97506120658361285b565b925050600181019050612046565b5085935050505092915050565b600061208c838561288a565b9350612099838584612a4f565b6120a283612bf9565b840190509392505050565b6120b681612a2b565b82525050565b6120c581612a3d565b82525050565b60006120d682612843565b6120e081856128a6565b93506120f0818560208601612a5e565b6120f981612bf9565b840191505092915050565b600061210f82612843565b61211981856128b7565b9350612129818560208601612a5e565b61213281612bf9565b840191505092915050565b600061214a6026836128b7565b915061215582612c0a565b604082019050919050565b600061216d601d836128b7565b915061217882612c59565b602082019050919050565b60006121906020836128b7565b915061219b82612c82565b602082019050919050565b60006121b3601c836128b7565b91506121be82612cab565b602082019050919050565b60006121d66012836128b7565b91506121e182612cd4565b602082019050919050565b60006121f9601b836128b7565b915061220482612cfd565b602082019050919050565b600061221c6021836128b7565b915061222782612d26565b604082019050919050565b600061223f6008836128b7565b915061224a82612d75565b602082019050919050565b600061226260008361288a565b915061226d82612d9e565b600082019050919050565b600061228560008361289b565b915061229082612d9e565b600082019050919050565b60006122a86007836128b7565b91506122b382612da1565b602082019050919050565b60a0820160008201516122d46000850182612438565b5060208201516122e76020850182612438565b5060408201516122fa6040850182612438565b50606082015161230d6060850182612438565b5060808201516123206080850182612438565b50505050565b600060c08301600083015161233e6000860182612438565b506020830151848203602086015261235682826120cb565b915050604083015161236b6040860182611f8f565b50606083015161237e6060860182611f8f565b5060808301516123916080860182612438565b5060a08301516123a460a0860182612438565b508091505092915050565b600060c0830160008301516123c76000860182612438565b50602083015184820360208601526123df82826120cb565b91505060408301516123f46040860182611f8f565b5060608301516124076060860182611f8f565b50608083015161241a6080860182612438565b5060a083015161242d60a0860182612438565b508091505092915050565b61244181612a21565b82525050565b61245081612a21565b82525050565b600061246182612278565b9150819050919050565b60006020820190506124806000830184611f9e565b92915050565b600060408201905061249b6000830185611f9e565b6124a860208301846120ad565b9392505050565b60006040820190506124c46000830185611f9e565b6124d160208301846120bc565b9392505050565b600060208201905081810360008301526124f28184611fad565b905092915050565b600060208201905081810360008301526125148184612022565b905092915050565b600060208201905081810360008301526125368184612104565b905092915050565b600060208201905081810360008301526125578161213d565b9050919050565b6000602082019050818103600083015261257781612160565b9050919050565b6000602082019050818103600083015261259781612183565b9050919050565b600060208201905081810360008301526125b7816121a6565b9050919050565b600060208201905081810360008301526125d7816121c9565b9050919050565b600060208201905081810360008301526125f7816121ec565b9050919050565b600060208201905081810360008301526126178161220f565b9050919050565b6000608082019050818103600083015261263781612232565b90506126466020830187611f9e565b6126536040830186612447565b8181036060830152612666818486612080565b905095945050505050565b6000608082019050818103600083015261268a8161229b565b90506126996020830185611f9e565b6126a66040830184612447565b81810360608301526126b781612255565b90509392505050565b600060a0820190506126d560008301846122be565b92915050565b600060208201905081810360008301526126f581846123af565b905092915050565b60006020820190506127126000830184612447565b92915050565b600060c08201905061272d6000830189612447565b818103602083015261273f8188612104565b905061274e6040830187611f9e565b61275b6060830186611f9e565b6127686080830185612447565b61277560a0830184612447565b979650505050505050565b60006060820190506127956000830186612447565b6127a26020830185612447565b6127af6040830184612447565b949350505050565b60006127c16127d2565b90506127cd8282612ac3565b919050565b6000604051905090565b600067ffffffffffffffff8211156127f7576127f6612bca565b5b61280082612bf9565b9050602081019050919050565b6000819050602082019050919050565b6000819050602082019050919050565b600081519050919050565b600081519050919050565b600081519050919050565b6000602082019050919050565b6000602082019050919050565b600082825260208201905092915050565b600082825260208201905092915050565b600082825260208201905092915050565b600081905092915050565b600082825260208201905092915050565b600082825260208201905092915050565b60006128d382612a21565b91506128de83612a21565b9250827fffffffffffffffffffffffffffffffffffffffffffffffffffffffffffffffff0382111561291357612912612b3d565b5b828201905092915050565b600061292982612a21565b915061293483612a21565b92508261294457612943612b6c565b5b828204905092915050565b600061295a82612a21565b915061296583612a21565b9250817fffffffffffffffffffffffffffffffffffffffffffffffffffffffffffffffff048311821515161561299e5761299d612b3d565b5b828202905092915050565b60006129b482612a21565b91506129bf83612a21565b9250828210156129d2576129d1612b3d565b5b828203905092915050565b60006129e882612a01565b9050919050565b60006129fa82612a01565b9050919050565b600073ffffffffffffffffffffffffffffffffffffffff82169050919050565b6000819050919050565b6000612a3682612a21565b9050919050565b6000612a4882612a21565b9050919050565b82818337600083830152505050565b60005b83811015612a7c578082015181840152602081019050612a61565b83811115612a8b576000848401525b50505050565b60006002820490506001821680612aa957607f821691505b60208210811415612abd57612abc612b9b565b5b50919050565b612acc82612bf9565b810181811067ffffffffffffffff82111715612aeb57612aea612bca565b5b80604052505050565b6000612aff82612a21565b91507fffffffffffffffffffffffffffffffffffffffffffffffffffffffffffffffff821415612b3257612b31612b3d565b5b600182019050919050565b7f4e487b7100000000000000000000000000000000000000000000000000000000600052601160045260246000fd5b7f4e487b7100000000000000000000000000000000000000000000000000000000600052601260045260246000fd5b7f4e487b7100000000000000000000000000000000000000000000000000000000600052602260045260246000fd5b7f4e487b7100000000000000000000000000000000000000000000000000000000600052604160045260246000fd5b6000601f19601f8301169050919050565b7f4f776e61626c653a206e6577206f776e657220697320746865207a65726f206160008201527f6464726573730000000000000000000000000000000000000000000000000000602082015250565b7f5477656574566f7465723a206d73672e76616c75655f544f4f5f4c4f57000000600082015250565b7f4f776e61626c653a2063616c6c6572206973206e6f7420746865206f776e6572600082015250565b7f5477656574566f7465723a20747765657455726c5f494e56414c494400000000600082015250565b7f4661696c656420746f2073656e64204554480000000000000000000000000000600082015250565b7f5477656574566f7465723a206c696b654665655f544f4f5f4c4f570000000000600082015250565b7f5477656574566f7465723a2066656552656365697665725f5a45524f5f41444460008201527f5200000000000000000000000000000000000000000000000000000000000000602082015250565b7f66616c6c6261636b000000000000000000000000000000000000000000000000600082015250565b50565b7f7265636569766500000000000000000000000000000000000000000000000000600082015250565b612dd3816129dd565b8114612dde57600080fd5b50565b612dea816129ef565b8114612df557600080fd5b50565b612e0181612a21565b8114612e0c57600080fd5b5056fea26469706673582212203fabbb4efa6d5ce40b6d826c90dd5192177684132dbe1af42b1ffd9feead538964736f6c63430008040033436f6e7374727563746f723a20547765657420566f746572206465706c6f796564",
	"linkReferences": {},
	"deployedLinkReferences": {}
}